:10000000F82200202501000021010000210100004C
:1000100000000000000000000000000000000000E0
:1000200000000000000000000000000021010000AE
:10003000000000000000000021010000210100007C
:100040002101000021010000151000002101000025
:1000500021010000210100002D24000021010000E9
:100060002101000021010000210100002101000008
:1000700021010000210100002101000021010000F8
:1000800021010000210100002101000021010000E8
:1000900021010000210100002101000021010000D8
:1000A00021010000210100002101000021010000C8
:1000B0000000000010B5064C2378002B07D1054B3B
:1000C000002B02D0044800E000BF0123237010BDC4
:1000D00000000020000000003C280000084B10B584
:1000E000002B03D00749084800E000BF0748036819
:1000F000002B00D110BD064B002BFBD09847F9E731
:1001000000000000040000203C2800003C28000003
:100110000000000010B5014B984710BD1505000008
:10012000FEE7000010B51A4A1A4B9A4211D01A0085
:10013000194B9A420DD2194A03339B1A9B0801337B
:100140009B000022134812498C58845004329A4272
:10015000FAD1134A134B9A420AD2D34311495B187E
:1001600003218B4304339B18002102C29342FCD12C
:100170000D4AFF210D4B8B4393600D4A53687F3925
:100180000B4353600B4B98470B4B9847FEE7C04619
:100190003C28000000000020000000200400002097
:1001A00000000020F402002000ED00E0000000004C
:1001B000004000418926000075260000044A136AA9
:1001C00008210B4313623831F823024AD15070479B
:1001D000000400400018004010B5044B984700226E
:1001E00003490448044B984710BDC046BD010000B8
:1001F000000C0043880200208D050000034A51696D
:1002000080235B000B4353617047C04600040040ED
:1002100010B5034B984703490348044B984710BD5A
:10022000FD010000002000408C020020DD050000E0
:10023000F0B5CE46474680B5C022D20501205061B8
:100240009060224B22499962C0273F069F62402559
:10025000595D814301242143C9B259553026995D26
:10026000313DA946A9438846032145460D439D5586
:10027000022151619160174999629F624127D95DBE
:1002800081432143C9B2D955995D323F3940213765
:10029000394399558021C90251600F4A9A620F4A29
:1002A0009A6252215A5C2C3EB2435A545A5C8243A1
:1002B0002243D2B25A5419395A5C484682430D3807
:1002C00002435A540CBC90469946F0BD00280040A9
:1002D000010000400200004000000240040002C093
:1002E000064B4021CC2299500331083A9950044AD8
:1002F000D36941390B43D3617047C04600180040B1
:100300000004004010B5044B984704490448054BCD
:100310009847054B984710BDE102000000040042D9
:10032000BC020020D90700003102000070B5124B5A
:10033000D020195C042291431954195C0125A9436A
:1003400001242143C9B219541838195C0F26B1434E
:100350000D3E31431954D1215E5C96435E545A5C84
:10036000AA432243D2B25A541A5CC2390A4011310C
:100370000A431A5470BDC04600280040064B402175
:10038000E02299500331043A9950044A136A4139E2
:100390000B4313627047C046001800400004004041
:1003A00010B5044B984704490448054B9847054B42
:1003B000984710BD7D03000000040043D4020020D4
:1003C000990700002D0300002022C023DB055A609E
:1003D000094B0A4A9A62C02212069A6245215A5C67
:1003E0000120824302435A5413395A5C0E300240B2
:1003F000013002435A54704700280040200000405A
:10040000054AD16980235B010B43D36140218023DE
:100410005B00024AD15070470004004000180040C1
:1004200010B5044B984704490448054B9847054BC1
:10043000984710BD0104000000300042A8020020CF
:1004400025060000C9030000F0B5C64600B5C0246B
:10045000E40580225204A2601A4B8027FF059F62A8
:100460001949996262615820195C042290469143AF
:100470001954195C0126B14301252943C9B2195405
:100480001C38195C0B329143093A114319548021ED
:100490008904A1609F620D4F9F62616159215C5C7C
:1004A000424694435C545A5CB2432A43D2B25A54F3
:1004B0001A5C4A390A4051310A431A5404BC904626
:1004C000F0BDC04600280040000100C0000200C08E
:1004D00040219023064AD150064B196980225201CF
:1004E0000A431A619A6901210A439A617047C0461A
:1004F000001800400004004010B5034B9847034B20
:100500009847034B984710BDD10400005D0B0000D5
:100510004904000010B5074B9847074B9847074B15
:100520009847074B9847074B9847074B9847074B07
:10053000984710BD4D0D0000D901000011020000C8
:1005400005030000A103000021040000F9040000DD
:1005500070B582B000226B46DA8000210848094B52
:1005600098476B469C1D064D074E01232200002133
:100570002800B047238801339B059B0D2380F4E7B7
:10058000A802002069060000A506000070B504005E
:100590000D0000280CD00800431E9841C0B239223B
:1005A0000449054B984729002000044B984770BD2B
:1005B0000020F4E7F4260000C10B0000150D000038
:1005C000EFF31083036072B6BFF35F8F7047BFF322
:1005D0005F8F036883F310887047000070B50400D4
:1005E0000D00431E9841C0B2E022520009490A4B57
:1005F00098472368AB4208D0002B08D12560200023
:10060000064B9847064B636170BD0020FCE7122043
:100610004042F9E710270000C10B0000850F0000E1
:10062000B207000070B505000C00002813D00800C8
:10063000431E9841C0B232220849094B9847210015
:100640002800084B9847002804D100236B60AB605A
:10065000EB602B6170BD0020EDE7C0462C27000049
:10066000C10B0000190E000070B504000D00002839
:1006700010D0002001238B424041C0B2012318401A
:1006800052220549054B984729002000044B984702
:10069000002070BD0020F1E72C270000C10B0000F6
:1006A000450E0000F0B5CE4600B582B007000D0043
:1006B00091461E0000282DD00020012924D96A224D
:1006C00019491A4B9847019729003800184B984749
:1006D000002823D0EC003C194B466360A660002E36
:1006E0001FD0144F636819882A000198B8476368BF
:1006F00002336360A368013BA360002BF2D10020AA
:1007000002B004BC9146F0BD002A05D03000431E63
:100710009841D4E70020D2E70020D0E71D204042D6
:10072000EEE70020ECE7C0462C270000C10B0000DC
:100730009B0E0000BD0E000010B584B0140001AB8C
:100740001438828B1A800294054A5A80039119004A
:10075000044B9847002800D1200004B010BDC046CB
:100760000080FFFF7911000010B584B0140001ABC8
:100770001438828B1A800294054A5A80039119001A
:10078000044B9847002800D1200004B010BDC0469B
:100790000180FFFF7911000070B504000D00431EB9
:1007A0009841C0B25E220749074B984729002000B4
:1007B000064B9847002803D1054BA361054B6361A5
:1007C00070BDC04648270000C10B00004911000061
:1007D000690700003907000070B504000D0000280B
:1007E00016D00800431E9841C0B2402209490A4B66
:1007F00098476560201D2900084B9847002806DBB4
:10080000074BA382074B2361074BE360002070BDB9
:100810000020EAE764270000C10B0000B1160000C9
:100820000080FFFFB10800007508000030B587B0F8
:1008300004000D00002814D00800431E9841C0B2E7
:10084000B3220949094B98472B6803936B680493BB
:10085000AB6801930593201D03A9054B984707B08A
:1008600030BD0020ECE7C04664270000C10B00004B
:10087000AD17000070B584B004000E001500431ED3
:100880009841C0B2A3220749074B9847002302931F
:100890000196039520000C3801A9044B984704B039
:1008A00070BDC04664270000C10B00002D08000089
:1008B00070B584B004000E001500431E9841C0B20C
:1008C00087220749074B9847029600230193039517
:1008D00020000C3801A9044B984704B070BDC046F5
:1008E00064270000C10B00002D080000F0B50400D3
:1008F0000E4B5A78904217D0002300200B4F0F2642
:1009000026403D0008E0013040B204280AD02033E0
:10091000EA185278A24206D0D95D0029F3D1964256
:10092000F1D100E00538F0BD0020FCE71C000020FC
:100930000020704770B504000D000A4B9847420133
:10094000094B9B189A780023032A01D0180070BD28
:100950004001054B181883692900200098470300BF
:10096000F4E7C046ED0800001C000020F0B585B09B
:1009700005000F001600514B98470400002F62D16C
:100980004F4B420199180020C870D35C002B0ED049
:1009900062014B4B9B1801229A706401484B1C1951
:1009A000E178E36932002800984705B0F0BD8B7804
:1009B000032B0CD0424B62010C329A1864011C19B3
:1009C00060780021E36998470223A370EDE73C4A71
:1009D0000B000C254D5761010C3152185878DB691A
:1009E00001219847002817D06201354B9B1805223A
:1009F0009A70033ADA70002D09DB6401304B1C1940
:100A000060788023184301212E4B9847CDE764017D
:100A10002B4B1C196078F6E76401294B1C19042341
:100A2000A3706378002201920292002D08DB8032CD
:100A3000134301A8037201234372234B9847B4E781
:100A40000F221340F5E7012F0AD0022F1DD0032FEC
:100A50002CD042011A4B9B1806229A70DA709CE740
:100A6000174B420199180220C870D35C002B05D0A7
:100A70006201134B9B1805229A708EE702228A703E
:100A8000002128000F4B984787E70D4B420199182A
:100A90000420C870D35C002B05D06201084B9B1862
:100AA00001229A7079E702238B707EE74201044BA2
:100AB0009B1800229A700532DA706EE7ED0800008C
:100AC0001C0000201D200000E9210000F0B5C646F2
:100AD00000B504001D4B9847060045010C351C4B22
:100AE0005D19290020001B4B9847C0B208280AD086
:100AF00001212000184DA847802020430121A8474C
:100B000004BC9046F0BD00212000134B9846984746
:100B10008027274300213800C04772010C4B9B18E7
:100B200001229A705B692900200098470028E7D1CC
:100B30007601074B9E190523B37001212000064C56
:100B4000A04701213800A047DAE7C046ED080000C1
:100B50001C0000207D2100001D20000010B5104B5E
:100B6000984700281BDB0F4C8022002120000E4BF1
:100B7000984723008034FF210C4A59705A619A61CA
:100B8000DA612033A342F8D109490020094CA0477B
:100B900009490120A04709490220A047002010BDB3
:100BA000311F00001C000020E32600003109000076
:100BB000CD0A0000FD230000350900006D0900008A
:100BC000002800D100BE70470020704770B50400B7
:100BD0000D004C4BC01843425841C0B2AA224A49AA
:100BE0004A4B9847238CDB0718D40322238C1342EB
:100BF000FCD123789B070BD52378022293432370E3
:100C00000132238C1342FCD10222238C1342FCD1EB
:100C1000012323700322238C1342FCD10122238C55
:100C20001342FCD1EA00521B9200394B9B189A7870
:100C30006270DA78A2701A79E270DB882381238CE3
:100C40005B05FCD1EB005B1B9B00314AD3181B8971
:100C50006381238C5B05FCD1EB005B1B9B002C4A62
:100C6000D3189B7A2373238C5B05FCD1EB005B1BB1
:100C70009B00274AD318DB7A6373238C5B05FCD176
:100C8000EB005B1B9B00224AD3189B89E381402227
:100C9000238C1342FCD1EB005B1B9B001C4AD31836
:100CA000DB8923828022238C1342FCD1EB005B1B67
:100CB0009B00174AD3181B8A638280225200238C20
:100CC0001342FCD1EB005B1B9B00114AD3185B8ADB
:100CD000A38280229200238C1342FCD10C49EB00AA
:100CE0005A1B92008A18127D22770022A2625D1B95
:100CF000AD004D196B7823700332238C1342FCD165
:100D0000002070BD00F4FFBC9C270000C10B000058
:100D10008027000070B505000C00431E9841C0B24A
:100D2000D7220649064B98472C602000054B984770
:100D300001002000044B984770BDC0469C2700006E
:100D4000C10B0000C90B0000CD0B000010B5094B12
:100D50005A685A600220084B9847084B9847084B3E
:100D60009847084B9847084B9847FF20074B9847F0
:100D700010BDC046004000415B0F0000090F00009D
:100D8000210F0000F50E0000590F0000D10E0000E9
:100D900010B504001D4BC01843425841C0B2DC22BC
:100DA0001B491C4B9847A368DB0718D40322A36890
:100DB0001A42FCD123789B070BD523780222934358
:100DC00023700132A3681A42FCD10222A3681A429E
:100DD000FCD1012323700322A3681A42FCD1012213
:100DE000A3681A42FCD100236370A370A38102227E
:100DF000A3681A42FCD10023E3810222A3681A42AD
:100E0000FCD101232376002010BDC04600D0FFBDD9
:100E1000B4270000C10B000070B505000C00431E94
:100E20009841C0B252220449044B98472C602000DC
:100E3000034B984770BDC046B4270000C10B0000AB
:100E4000910D000010B5012900D910BD03681A7872
:100E5000022082431A7001309A681042FCD14A0085
:100E60009A18908902242043908102209A681042A7
:100E7000FCD11A78022002431A7001309A6810429D
:100E8000FCD1002904D10131DA790A42FCD0DCE737
:100E90000221DA790A42FCD0D7E70023012901D9DF
:100EA000180070470268022093681842FCD1043190
:100EB0004900521893889B07DB0FF1E7006808325E
:100EC000520011520C2283681A42FCD17047000074
:100ED000C30707D5044A054B1A621900044A4B6838
:100EE0001342FCD17047C0460601010000180040C3
:100EF000FD070000034B08229A71043A5A71033A25
:100F00001A71704700040040044BDA69F821490166
:100F10000A40DA6101221A617047C04600100040A1
:100F200082220C4B1A7518003821803A435C134218
:100F3000FCD108491022CB681A42FCD0054A137D27
:100F400080210B431375100048390E22435C134275
:100F5000FCD17047000C004070478023DB059B7874
:100F60000322134098420CD08022D205FF239371B4
:100F7000937803218B430840184390709379002B9A
:100F8000FCD0704710B5041E37D00068431E98414E
:100F9000C0B22F221A491B4B98471B4B1C60236879
:100FA00001211A691142FCD118491A690A42FCD17F
:100FB0001A8892070CD51A8802218A431A8013498D
:100FC0001A690A42FCD1216802220B691A42FCD13B
:100FD0002268138801210B43138013691942FCD145
:100FE000236801211A691142FCD1094A1A80074974
:100FF0001A690A42FCD1002010BD0020C9E7C04692
:10100000CC270000C10B00009C00002003800000E2
:101010000081FFFF10B5074B1C6823689B89DB0527
:1010200000D410BD200063689847236880225200D6
:101030009A81F6E79C00002010B5084A00239042F0
:101040000AD08003000E052806D0054A0549002075
:10105000054B984701235B42180010BD0004004374
:101060009B030000FC270000C10B000070B50500C9
:101070000C000800314B9847C0B2E369DB0721D46C
:1010800043001B18DB002E4AD31859681C23194053
:101090000322E3691A42FCD123689B070BD523681E
:1010A0000222934323600132E3691A42FCD10222F7
:1010B000E3691A42FCD101230B4323600322E36955
:1010C0001A42FCD10122E3691A42FCD143001B18E9
:1010D000DB001B4AD318596821600322E3691A42D6
:1010E000FCD143001B18DB00154AD3189B686360D2
:1010F0000422E3691A42FCD143001B18DB00104AAA
:10110000D318DB68E3608901890FA981636A0D4EFA
:101110001E4001238B429B415B429B03334363622E
:101120000422E3691A42FCD143001818C000044BA2
:101130001818438AEB81002070BDC04639100000AA
:10114000E4270000FFBFFFFF70B504000D00431E41
:101150009841C0B2044A0549054B984725612900CA
:101160002000044B984770BD0A050000FC270000D2
:10117000C10B00006D100000F0B5DE4657464E462C
:101180004546E0B583B00500884604690600731E35
:101190009E41F3B20193B34FB34A39001800B34EE6
:1011A000B0472869431E9841C0B2B14A3900B047E0
:1011B0004046431E9841C0B2AE4A3900B0476B88E2
:1011C000DB0500D525E243465A8880235B001A439D
:1011D00041464A802A00C1C9C1C2626813436360A4
:1011E0000422E3691A42FCD12F693B689946A24A5E
:1011F0009C4901989D4B98476B68012B5AD07B689E
:101200009E4A13407B600422FB691A42FCD12B8862
:101210005A055CD56A88D20704D56A888021C9003E
:101220000A436A805B00964919400422FB691A420E
:10123000FCD17B6A8022D2011A4080231B02134317
:10124000194379620422FB691A42FCD129690B7E99
:10125000DBB28C4A0320184204D10B7EDBB2013A88
:10126000002AF8D13E680421FA691142FCD17A8B38
:1012700092B2D90700D4A0E093073ED501233B7674
:101280006B88802149010B436B806B887E490B4042
:101290006B800120030013405842584105386B8889
:1012A000794A13406B8003B03CBC90469946A246F5
:1012B000AB46F0BD4B461B01A1D57A688023DB020B
:1012C00013437B600422FB691A42FCD19FE76A88C2
:1012D0005B00FF210B40FE39114019430422FB69DA
:1012E0001A42FCD17B6A8022D20113400B437B62FD
:1012F0000422FB691A42FCD1A8E753071BD46B8870
:101300005B0535D52B88DB09062119400422FB69D2
:101310001A42FCD17B6A8022D2011340F12213438E
:101320000B437B62ED3AFB691A42FCD16B88574A4A
:1013300013406B8066E06B68002B04DD6B888022B5
:10134000520113436B806B881BB2002B06DB6B884A
:101350004D4A13406B8002204042A0E77A68C023C8
:101360009B0213437B600423FA691342FCD1EEE72E
:101370006B68002B12D16B881BB2002B04DB6B88CF
:10138000414A13406B803DE07A68C0239B021343BF
:101390007B600422FB691A42FCD1F0E7AB681A7843
:1013A0002823FA540422FB691A42FCD1AB680133AA
:1013B000AB606B68013B6B6024E09B0722D56B68D8
:1013C000002B40D052073ED43601F60F013B6B6034
:1013D000002B00D020E1002E00D123E16B881BB24E
:1013E000002B1DDB6B88284A13406B80A9684B1CBF
:1013F000AB600422FB691A42FCD12823FB5C0B7012
:1014000002233B76002680235B009A4603210422B8
:10141000FF3B9C460133994626339B460196C3E029
:101420007B68194A13407B600632FF32FB691A421F
:10143000FCD17A68C0239B0213437B600422FB69C2
:101440001A42FCD1CEE702233B760220404226E737
:101450006268C0239B02134363600422E3691A425B
:10146000FCD1B6E0FC270000C2050000C10B000063
:10147000C3050000C405000097050000FFFFFBFF47
:10148000FE070000FFFF0000FFFEFFFFFFFBFFFF66
:1014900002421BD16B885B0535D52B88DB09062002
:1014A0001840E3691A42FCD1636A8026F601334092
:1014B000F126334303436362E3691A42FCD16B882C
:1014C000784803406B80002301936DE06B68002B2C
:1014D00004DD6B888020400103436B806B881BB266
:1014E000002B07DB6B88704803406B8002235B4254
:1014F000019359E06068C0239B0203436360E36982
:101500001A42FCD1EEE76B68002B13D16B881BB23B
:10151000002B06DB6B88644803406B80002301933B
:1015200042E06068C0239B0203436360E3691A42A0
:10153000FCD1EFE7AB681B7858462354E3691A42A5
:10154000FCD1AB680133AB606B68013B6B6000237F
:10155000019329E0002601964E461E4224D06B6876
:10156000002B4DD002424BD1FF0E60460740013B9D
:101570006B60002B00D082E0002F00D185E06B88EB
:101580001BB2002B2CDB6B88474803406B80A8689C
:10159000431CAB60E3691A42FCD15B46E35C037019
:1015A0004B462376002301936B88504603422DD08F
:1015B0002E69337EDBB23D48194241D1337EDBB226
:1015C00001380028F8D143465B881BB2002B00DAB3
:1015D0003EE76B88344A13406B800520404262E648
:1015E0006368314803406360E3691A42FCD1606874
:1015F000C0239B0203436360E3691A42FCD1C2E744
:101600004B46237602235B420193CDE7019E3000D7
:1016100049E60620404246E6012B00D0E6E6002ED1
:1016200000D1E3E67A688023DB0213437B60042267
:10163000FB691A42FCD16B68002B00D1CEE6D5E6DF
:101640002768E0690242FCD1608B80B266461E4288
:1016500000D17FE74B46034200D119E726766B881D
:101660008026760133436B806B880F4E33406B804E
:101670006346184046424641731F019394E7012B8D
:1016800000D084E7002F00D181E760688023DB026F
:1016900003436360E3691A42FCD16B68002B00D1FD
:1016A0006DE774E7FFFBFFFFFFFEFFFFFFFF00009A
:1016B00070B505000C00364B994203D08B031B0E0E
:1016C000012B0BD0002D51D0601E8441E0B2314A75
:1016D0003149324B98470D20404246E000284DD119
:1016E0002C4A2D4900202D4B9847E369DB0718D47D
:1016F0000322E3691A42FCD123689B070BD52368B8
:101700000222934323600132E3691A42FCD1022290
:10171000E3691A42FCD10D2323600322E3691A42D4
:10172000FCD10122E3691A42FCD12C602000431E47
:101730009841C0B21A4A1849184B9847194B236070
:101740000322E3691A42FCD180239B0263600722D3
:10175000E3691A42FCD12723237300220933E254A0
:101760002F3B2B71104BEB80002070BD094A0A49BA
:1017700000200A4B98470D204042F6E70800431E20
:101780009841C0B2034A0449044B9847ADE7C046AC
:10179000000400431E090000FC270000C10B0000EC
:1017A000E80800000C002000FF010000F0B5DE4654
:1017B00057464E464546E0B583B081460E00046864
:1017C0000B6898464D6803790193002815D02000D6
:1017D000431E9841C0B2364A3649374B9847E369B1
:1017E0005B073FD10323E0691840FCD123689B07C6
:1017F0003BD5020001239C4609E00020EBE70135C0
:1018000001325BB2002B16DBB368834227D9237EFB
:10181000DBB2042119422BD0A76A002DF0D02F7023
:1018200001990129EBD93F0A6F700235E8E70121E0
:101830008B46D84437E001235B42638381332376B0
:10184000132040420322237E1342FCD0032323763D
:1018500003B03CBC90469946A246AB46F0BD9342CD
:10186000D5D8EFE704204042F2E714204042EFE7EA
:101870009042C6D867461F42C3D04F46FF88BA463B
:101880004746002F0FD03F78BA4601990129CED99B
:1018900047467F783F02BB46574659460F43BA46F4
:1018A00002218B46D84401305746A762A9E7C046BB
:1018B0007E0A0000FC270000C10B000000207047DA
:1018C00070B5837C0F221340C17C083A0A40012A7C
:1018D0000BD05A011A498C4662441021D1715B0128
:1018E000184A94466344197070BD4A060FD5C27CED
:1018F00040218A43C2745A018224E405A44662440A
:1019000080258224640015550624FF341155C27CBD
:1019100008218A43C2740C495A018C180025A5720B
:10192000A5761300064CA44663446F24DC71054B76
:101930009C4662441470807C8B6E9847D4E7C04606
:101940000001004108010041A000002010B5202244
:101950008A40D2B2817C0F230B405B0105498C4643
:1019600063441A708268807C034B1B6F0121984787
:1019700010BDC04608010041A000002010B5837CC6
:10198000FF2B02D0C27C520600D410BDC27C402482
:10199000A243C27482680248046F1800A047F4E7AB
:1019A000A000002030B583B0837C01AC25252570D4
:1019B00025356570FF2B1BD0C47C640618D50F2419
:1019C0002340002916D05C010E4DAC4664448025AE
:1019D000257101AC645C59010A4DAC466144CC717F
:1019E0005B0109498C4663441C701100074B984702
:1019F00003B030BD5C01034DAC46644440256571C5
:101A0000E7E7C04600010041080100417D190000E0
:101A100070B582B0837C0F22134001AA0424147095
:101A2000043454705D01002932D01A00083252018A
:101A30008224E405145D6406640F0A015219304DD6
:101A4000AA18957AEDB2022C2BD0AC0742D5C57CF2
:101A5000947A0226B443947201AA545C5A01294E26
:101A6000B4466244D4715B01274A944663441C70B7
:101A700007232B40012B40D1C37C5B063DD5C37CA3
:101A8000DB09994239D000221900204B984734E0F5
:101A90001A00083252018224E405145D0722144022
:101AA000CBE7EC07D1D5947A0125AC43947201AA17
:101AB000545C5A01134DAC466244D4715B01124A26
:101AC000944663441C704B1E9941C9B204220F4BCB
:101AD000984712E05A005218120109488218002053
:101AE000907201AA515C5A01064884466244D17141
:101AF0005B01054A94466344197002B070BDC0464C
:101B0000A00000200001004108010041A5190000CB
:101B1000F0B5C64600B50C4D2C0074342935FF35A0
:101B20000A4B9846FF27002603212000C047A774D0
:101B3000E6741434AC42F7D1602200210248044B11
:101B4000984704BC9046F0BDA00000207D1900001D
:101B5000E3260000F0B5C64600B504000E00837C05
:101B60000F251D40002900D1AAE06A015A4B9B189D
:101B700058698004800C238A584A934200D19AE025
:101B8000013B9AB2E37C07271F40002E05D06B0172
:101B900053498C4663440221D971A368C118A160DE
:101BA000636899424AD25B1A9BB2E27C920635D5B1
:101BB000228A101C92B29A4200D9181C83B298460D
:101BC00023689C4661444246E068464B9847E1687A
:101BD0006A01414B9B1819616A013F4B9B185A6976
:101BE00041468904890C920B92030A435A615A694F
:101BF0003D490A405A61002E07D1012F59D04A228F
:101C00006B013A498C4663441A706D01344B9C4613
:101C1000654480236B7104BC9046F0BD1A1C802083
:101C20008001834201D9324B1A8893B298462368C7
:101C300059186A01284B9B181961CDE7E37CDB0634
:101C40000FD5E37C10229343E3746A01224B9B1867
:101C50005A69920B92035A615A6923490A405A61A0
:101C6000C9E7012F0ED06D01224B9C4665444A23E3
:101C70002B70218A024091420BD0002120001E4B84
:101C80009847C8E76D011B4B9C4665444B232B705E
:101C9000EFE7E37C40229343E374A07C0E4BDB6EC2
:101CA000A16898470028B6D1E37C40221343E3742F
:101CB000E3E74E22A4E7E77C07231F40074A66E7D5
:101CC000038A064A0020934200D059E7E37C0727A5
:101CD0001F400020014A60E7A0000020FF03000031
:101CE00000010041D1260000FF3F00F00901004142
:101CF00018280000080100417D190000F8B5DE46F3
:101D000057464E464546E0B504008846837C0F257D
:101D10001D40002957D06A017D4B9B185A6812015B
:101D2000920C92465F68BF04BF0CBB46068A794B93
:101D30009E4200D1CDE0013EB6B25F463740E37C23
:101D400007221A4091464346002B05D06B01724A88
:101D5000944663440122DA71E37C9B060FD56368E5
:101D6000002B39D0A0681B1A9BB2226894466044AD
:101D7000E1681A00BB4200D93A00684B9847636893
:101D8000002B29D04246002A42D0228ABA423FD9AB
:101D9000E37C10229343E374A3685B44A3604B4647
:101DA000012B00D187E06B015D4A944663442522F4
:101DB0001A70002D02D1564BE2681A6000212000F3
:101DC000584B984759E0068A524B9E4200D18EE00C
:101DD00000239B469A46AEE7E37CDB0600D47FE017
:101DE000E37C1022934320221343E374484A6B019F
:101DF000E1689950218AD3185A68890409094A4828
:101E000002400A435A605A68920B92035A6022E0D9
:101E1000A2685244A2609342C1D99B1A9BB2E17C52
:101E2000890630D5228A111C92B29A4200D9191C17
:101E30008BB2E0686A01364950506A01344989180A
:101E40004A689B041B093848024013434B604B68A7
:101E50009B0B9B034B604346002B08D125224B462E
:101E6000012B2FD06B0131498C4663441A706D01F0
:101E7000294B9C46654440232B713CBC90469946B7
:101E8000A246AB46F8BD218A8B420AD9802189013E
:101E90008B420DD8B34321688A1869011C480A5047
:101EA000CBE78B42F7D2E17C20200143E174F2E7DB
:101EB00080239B01EFE76B01194A944663442D226E
:101EC0001A7076E76A01124B9B1800229A762D321F
:101ED000C8E7BF05BF0DC37C07221A40914635E70E
:101EE0004346002B0CD1A3685344A36057E7C37C3F
:101EF00007221A409146002700239B469A462BE76B
:101F0000238ABB4200D943E7A3685344A36046E752
:101F1000A0000020FF03000000010041D1260000C6
:101F2000080100417D190000FF3F00F00901004158
:101F300010B58223DB059B78DB0724D48221C905F9
:101F400003228B781342FCD18223DB051B789B078D
:101F500010D58222D205137802218B431370110011
:101F600003228B781342FCD18221C90502228B788F
:101F70001342FCD101228223DB051A7019000232C0
:101F80008B781342FCD18221C90501228B78134240
:101F9000FCD11E4B1E4A1A665A669A66DA661A67A2
:101FA0001C4B98471C4B1B685A0B1F210A40980C6E
:101FB00001409B015B0F1F2A21D01F2921D0072B35
:101FC00021D092010A431B0313438222D2051385B9
:101FD000D37803210B43D370D3780C210B43D370F8
:101FE00004231370110003228B781342FCD1822347
:101FF000DB05064A5A6201221A81002010BD1A3AF6
:10200000DBE70239DBE7023BDBE7C046A00000204C
:10201000BD180000111B00001C608000F0B50F23EC
:10202000034040B2C40F002B09D01A00002804DB83
:10203000022B05D91220404219E09A1CF8E7002231
:10204000012915D0002936D093009B189B00474AE0
:10205000D218863212780F2313405B01444A94460B
:10206000634498791023A3401840431E9841F0BD63
:102070001025A540EDB23D49900083189B00CB1878
:1020800086331E780F2333405E01394FBC466644C9
:1020900075712025A540ECB25B01364DAC4663441A
:1020A0001C70821892008A188032D37908210B4361
:1020B000D3710020DBE793009B1899002B4B5B1832
:1020C00086331B780F210B405D018221C9058C46A8
:1020D0006544832149006E5CF639A14000200E4220
:1020E000C5D0C9B20530FF3029542021A140C8B263
:1020F0005B01214EB446634418700823FF33EB5C48
:102100000B4209D00823FF33E854073BFF3BA340B1
:10211000DBB2822149006B5493009B189900134B4A
:102120005B188033D97907230B40012B0BD0930028
:102130009A1892000D4B9B188033DA7908218A4354
:10214000DA71002093E70633FF33E95CD63B0020C9
:10215000194200D08BE793009A189200034B9B180A
:102160008033DA7908218A43DA7180E7A000002001
:1021700000010041090100410801004170B50D0056
:102180000F2318404401164B1B1919685B689B0408
:102190009E0C02281BD8002D1CD08223DB059C46F8
:1021A000644480235B00E35C112B16D10823FF33CA
:1021B000E35C0020DB0600D470BD08222800094B38
:1021C000984710220823FF33E2543000F4E712202E
:1021D0004042F1E712204042EEE713204042EBE795
:1021E000A0000020D1260000F0B5DE4657464E463E
:1021F0004546E0B585B08046067A0F23334076B277
:10220000002B00D1D3E01800002E39DB0400734A04
:102210006032411C8D006D18AD0055198100091800
:1022200089005218918C6E4A91422BD04F1EBFB23A
:10223000424652681740022B00D9A4E043461B686F
:102240006848834220D998180190674884460198CD
:10225000604519D89B0717D1002E32DB914200D977
:10226000AFE0002F30D0A3001B199A005B4B9B18E6
:1022700080331B68002B00D18BE0002399460FE0D0
:10228000981CC3E70F00D3E7A3001B199A00534B18
:102290009B1880331B68002B00D177E001239946FF
:1022A000A3001B199A004D4B9B188033DB79022049
:1022B0001B070CD505B03CBC90469946A246AB46E0
:1022C000F0BD00239946EBE700239946E8E703A811
:1022D000464B9847A3001B199A00404B9B1880332C
:1022E000DB795B0644D4A3001B199B003B4A934651
:1022F0009B4480235B449A46DB7940221343524639
:10230000D37103A83A4B98475B46424612685A6716
:10231000424652689A6700235A46D367F20FD201A9
:102320005346D9797F230B40494649011343202264
:1023300093430B435246D37143465B7A0022002BF2
:1023400002D07A427A41D2B2A3001C19A400234BD6
:102350001B1980331201DF7910218F431743DF717E
:10236000002E0ADB00212800224B98470020A1E71D
:1023700003A81F4B984701209CE7002128001E4B13
:102380009847002096E71220404293E713204042EE
:1023900090E7122040428DE7132040428AE74346EF
:1023A0005A689705BF0D0D4D7435002446E70B4A5A
:1023B0006032918C0A4A9142F1D0084D7435002464
:1023C00034E7A3001B199A00044B9B1880331B6849
:1023D000002BE1D00123994662E7C046A00000200F
:1023E000FF030000FFFFFF1FFF9F0020C10500004B
:1023F000CF050000FD1C0000551B00000B1E08D07F
:10240000002808D0012809D0022806D1054A136700
:1024100003E0054BF4E7034A93667047014AD3662D
:10242000FBE7C046A0000020BD180000F8B58223DD
:10243000DB051E8CB6B2002E03D0834C743400250D
:10244000C0E0998B1B8B0B405A0718D49A051ED4F9
:102450001A0641D470221A4248D11A0764D4DB0705
:10246000EBD58223DB05794A9A839A82923AFF3A26
:102470001A83754B5B6E00210420984706E0042206
:102480008223DB059A83704B1B6E9847F8BD82232D
:10249000DB056E4A9A839A82923AFF3A1A836A4B14
:1024A0001B891B071B0F032B0CD0674B1B8D1B07B6
:1024B0001B0F00216F3A032B05D0634B5B6E03208B
:1024C0009847E3E7002252015F4B9B1819894904A2
:1024D000490D00221A81F0E780228223DB059A83CE
:1024E000594B5B6E002105209847CFE78223DB051F
:1024F0009A839A82554A1A83554B1B8B5B070CD5DE
:10250000534990221201CB6813409342FBD14E4BAA
:102510005B6E002102209847B8E74D4980225200A7
:10252000CB681342FCD0F2E78223DB050021802236
:1025300052009954F83A9A8368329A82434A1A832D
:10254000444B9847404B5B6E0021012098479DE724
:10255000CB0607D44B0608D48B062ED500213E4B64
:1025600098472AE03D4B984727E001213A4B98478E
:1025700023E04B060ED40B0710D48B0712D407238D
:102580001A40012A19D14B0710D4CB0615D5334B6D
:10259000984712E00121304B98470EE00121304B63
:1025A00098470AE001212F4B984706E000212C4B69
:1025B000984702E00021284B984701351434092D33
:1025C00000D163E72000A17CFF29F6D00F230B4048
:1025D000012199400E42F0D05901234FBC4661447D
:1025E000C9795B01214FBC4663441B781940E4D094
:1025F000AB005A199200144B9C4662447032D27D53
:1026000047231340012BA3D053B2002BB1DB8B0621
:10261000D0D44B070CD4CB070ED407231A40012A81
:10262000CBD10B070CD4CB06C7D50C4B9847C4E7CE
:1026300000210B4B9847C0E701210D4B9847BCE7A1
:102640000121074B9847B8E7A000002001020000D5
:10265000000C0040111B00004D190000C1180000C3
:10266000111A0000551B0000000100410901004142
:10267000FD1C000010B5024B9847024CA047FDE737
:10268000150100005105000070B500260C4D0D4CE1
:10269000641BA410A64209D1002600F0BFF80A4D21
:1026A0000A4C641BA410A64205D170BDB300EB58C0
:1026B00098470136EEE7B300EB5898470136F2E74A
:1026C0002828000028280000282800002C280000C6
:1026D000002310B59A4200D110BDCC5CC454013324
:1026E000F8E703008218934200D170471970013354
:1026F000F9E700002E2E2F68616C2F7372632F682C
:10270000616C5F6164635F73796E632E63000000C8
:102710002E2E2F68616C2F7372632F68616C5F635C
:10272000616C656E6461722E630000002E2E2F684E
:10273000616C2F7372632F68616C5F6461635F7398
:10274000796E632E630000002E2E2F68616C2F734C
:1027500072632F68616C5F6932635F6D5F73796E5E
:10276000632E63002E2E2F68616C2F7372632F68A7
:10277000616C5F7370695F6D5F73796E632E630068
:102780000000000000000000000000000000000049
:102790000000000000000000000000002E2E2F6846
:1027A000706C2F6164632F68706C5F6164632E636B
:1027B000000000002E2E2F68706C2F6461632F685C
:1027C000706C5F6461632E63000000002E2E2F6822
:1027D000706C2F7274632F68706C5F7274632E63F9
:1027E00000000000050000001400200000010000AF
:1027F0000E0F00000000D70000093D002E2E2F68AC
:10280000706C2F736572636F6D2F68706C5F73658A
:1028100072636F6D2E63000000200000F8B5C046A3
:10282000F8BC08BC9E467047DD000000F8B5C04605
:0C283000F8BC08BC9E467047B5000000D4
:00000001FF
