S01200004D792050726F6A6563742E7372656355
S11300003020002025010000210100002101000012
S113001000000000000000000000000000000000DC
S113002000000000000000000000000021010000AA
S11300300000000000000000210100002101000078
S11300402101000021010000210100002101000024
S11300502101000021010000210100002101000014
S11300602101000021010000210100002101000004
S113007021010000210100002101000021010000F4
S113008021010000210100002101000021010000E4
S113009021010000210100002101000021010000D4
S11300A021010000210100002101000021010000C4
S11300B00000000010B5064C2378002B07D1054B37
S11300C0002B02D0044800E000BF0123237010BDC0
S11300D00000002000000000FC060000084B10B5E2
S11300E0002B03D00749084800E000BF0748036815
S11300F0002B00D110BD064B002BFBD09847F9E72D
S11301000000000004000020FC060000FC060000C3
S11301100000000010B5014B984710BDA902000073
S1130120FEE7000010B51A4A1A4B9A4211D01A0081
S1130130194B9A420DD2194A03339B1A9B08013377
S11301409B000022134812498C58845004329A426E
S1130150FAD1134A134B9A420AD2D34311495B187A
S113016003218B4304339B18002102C29342FCD128
S11301700D4AFF210D4B8B4393600D4A53687F3921
S11301800B4353600B4B98470B4B9847FEE7C04615
S1130190FC060000000000200000002004000020F5
S11301A0000000203000002000ED00E0000000000E
S11301B000400041610600004D060000F0B5C6464F
S11301C000B5C023DB059846042342465360204B08
S11301D0204A9A62C0210906996242201A5C0124CD
S11301E0A446A24301273A43D2B21A5430341A5DCA
S11301F0333882433A43D2B21A55202240464260F1
S1130200154A9A62996245201A5C6546AA433A43A4
S1130210D2B21A543222985C0F263040102528435B
S1130220C0B298542A3A404642600C4A9A62996293
S11302304322995C604681433943C9B299541A5D9B
S113024032402A43D2B21A5504BC9046F0BDC0468F
S11302500028004004000040200000400800004046
S1130260054AD16980235B010B43D361402180237C
S11302705B00024AD150704700040040001800405F
S113028010B5044B984704490448054B9847054B5F
S1130290984710BD61020000003000421C0000209D
S11302A0F9020000BD01000010B5024B9847024B53
S11302B0984710BD150400008102000070B582B09B
S11302C000226B46DA8000210848094B98476B46A8
S11302D09C1D064D074E0123220000212800B04733
S11302E0238801339B059B0D2380F4E71C00002029
S11302F03D0300007903000070B505000C000028E0
S113030013D00800431E9841C0B232220849094B59
S1130310984721002800084B9847002804D100235F
S11303206B60AB60EB602B6170BD0020EDE7C046F5
S1130330A80600000D040000E104000070B50400EC
S11303400D00002810D0002001238B424041C0B290
S11303500123184052220549054B984729002000E3
S1130360044B9847002070BD0020F1E7A806000068
S11303700D0400000D050000F0B5CE4600B582B0B6
S113038007000D0091461E0000282DD000200129F1
S113039024D96A2219491A4B984701972900380031
S11303A0184B9847002823D0EC003C194B46636057
S11303B0A660002E1FD0144F636819882A00019884
S11303C0B847636802336360A368013BA360002BF2
S11303D0F2D1002002B004BC9146F0BD002A05D041
S11303E03000431E9841D4E70020D2E70020D0E734
S11303F01D204042EEE70020ECE7C046A8060000BE
S11304000D0400006305000085050000002800D1EC
S113041000BE704710B5094B5A685A600220084B59
S11304209847084B9847084B9847084B9847084B00
S11304309847FF20074B984710BDC0460040004135
S113044023060000D1050000E9050000BD050000F9
S1130450210600009905000010B504001D4BC018CA
S113046043425841C0B2DC221B491C4B9847A36845
S1130470DB0718D40322A3681A42FCD123789B0714
S11304800BD523780222934323700132A3681A42C6
S1130490FCD10222A3681A42FCD101232370032257
S11304A0A3681A42FCD10122A3681A42FCD100239A
S11304B06370A370A3810222A3681A42FCD10023B3
S11304C0E3810222A3681A42FCD10123237600208F
S11304D010BDC04600D0FFBDC40600000D040000DE
S11304E070B505000C00431E9841C0B25222044965
S11304F0044B98472C602000034B984770BDC046BE
S1130500C40600000D0400005904000010B50129C0
S113051000D910BD03681A78022082431A70013092
S11305209A681042FCD14A009A1890890224204308
S1130530908102209A681042FCD11A78022002436A
S11305401A7001309A681042FCD1002904D101319B
S1130550DA790A42FCD0DCE70221DA790A42FCD0DB
S1130560D7E70023012901D9180070470268022047
S113057093681842FCD104314900521893889B07B0
S1130580DB0FF1E700680832520011520C22836835
S11305901A42FCD170470000C30707D5044A054B33
S11305A01A621900044A4B681342FCD17047C046D2
S11305B00601010000180040FD070000034B08225B
S11305C09A71043A5A71033A1A7170470004004050
S11305D0044BDA69F82149010A40DA6101221A61FF
S11305E07047C0460010004082220C4B1A75180058
S11305F03821803A435C1342FCD108491022CB686D
S11306001A42FCD0054A137D80210B431375100058
S113061048390E22435C1342FCD17047000C004061
S113062070478023DB059B780322134098420CD04B
S11306308022D205FF239371937803218B430840D2
S1130640184390709379002BFCD0704710B5024B7F
S11306509847024CA047FDE715010000BD020000C9
S113066070B500260C4D0D4C641BA410A64209D194
S1130670002600F033F80A4D0A4C641BA410A6426D
S113068005D170BDB300EB5898470136EEE7B300CF
S1130690EB5898470136F2E7E8060000E806000048
S11306A0E8060000EC0600002E2E2F68616C2F7304
S11306B072632F68616C5F6461635F73796E632E2C
S11306C0630000002E2E2F68706C2F6461632F6806
S11306D0706C5F6461632E6300000000F8B5C0466F
S11306E0F8BC08BC9E467047DD000000F8B5C04663
S10F06F0F8BC08BC9E467047B500000032
S9030000FC
