:10000000402600202D0100002901000029010000E8
:1000100000000000000000000000000000000000E0
:1000200000000000000000000000000029010000A6
:10003000000000000000000029010000290100006C
:100040002901000029010000290100002901000008
:100050002901000029010000F91500002901000014
:1000600029010000290100002901000029010000E8
:1000700029010000290100002901000029010000D8
:1000800029010000290100002901000029010000C8
:1000900029010000290100002901000029010000B8
:1000A00029010000290100002901000029010000A8
:1000B0000000000010B5064C2378002B07D1054B3B
:1000C000002B02D0044800E000BF0123237010BDC4
:1000D0006800002000000000F0230000084B10B56D
:1000E000002B03D00749084800E000BF0748036819
:1000F000002B00D110BD064B002BFBD09847F9E731
:10010000000000006C000020F0230000F02300003D
:100110000000000010B5024B9847024B984710BDF5
:1001200059020000E1210000FEE7000011481249D9
:1001300070B5884204D00023104CCA18A24213D3D1
:1001400000210F4B0F4A934212D3FF210E4B0F4A4F
:100150008B43936080230E4A51680B4353600D4BD1
:1001600098470D4B9847FEE7C55804331560E4E700
:1001700002C3E8E7F0230000000000206800002030
:10018000680000203C0600200000000000ED00E0B8
:100190000040004141230000E5200000F0B5C020F0
:1001A00080228025194B1A491E00C0055204ED0516
:1001B00082609D62996204214261583632788A4396
:1001C00032700122317891431143317019000F26AA
:1001D0003C310F78B743BC460627644627430F706F
:1001E00080270424BF0487609D620A4D9D62476199
:1001F00059331878A04318701878904302431A7046
:100200000B781E40602333430B70F0BD0028004084
:10021000000100C0000200C04122064B1A6080228B
:10022000054B520119690A431A61012299690A436F
:100230009A617047901800400004004010B5034BCD
:100240009847034B9847034B984710BD190200008D
:10025000BD0400009D01000010B50D4B9847C02360
:10026000DB0519004022943188330A601A60094B7B
:1002700009491A00A8321160C02109061160012144
:10028000C6331A788A431A70044B984710BDC0468B
:100290000D08000000280040400000403D02000022
:1002A000EFF31083036072B6BFF35F8F7047BFF345
:1002B0005F8F036883F3108870470000044B10B50C
:1002C0001C68044B9847044B01002000984710BD60
:1002D00084000020E9070000050800000F22002329
:1002E00070B50A4C02405E01A5196D7859B285427D
:1002F00009D0365D002E01D1AA4204D001330D2B66
:10030000F1D101214942080070BDC046880000209B
:100310000020704770B5084B04000D009847074B4C
:1003200040011B189A780020032A03D19B692900F9
:100330002000984770BDC046DD0200008800002004
:10034000F0B5394B87B000900F0001929847374DB8
:100350004401002F42D12E19F770295D002934D1B4
:100360002200B7780C327078F369032F28D10C275C
:10037000AA180131F7579847737800280DD0052245
:10038000B270033AF2701800002F01DB802018438E
:100390000121274B984707B0F0BD0422B27003AA91
:1003A00003905060002F08DB802003431372012369
:1003B000100053721F4B9847EDE70F200340F5E7FD
:1003C000AA1898470223B370E5E70123B3702C19EC
:1003D000E178E369019A00989847DCE72B19012F2F
:1003E0000CD10222DA70295D002904D19A7000989C
:1003F0000F4B9847EBE705229A70E8E7022F08D1E8
:100400000422DA702A5D002A01D19F70C3E701221D
:10041000F2E7032F04D100229A700532DA70D6E792
:1004200006229A70FAE7C046DD020000880000202C
:100430006D13000091140000F0B51C4B85B0040052
:1004400098471B4F430103930C33FB18019319008A
:100450002000184B98478026C0B2174D76420828D6
:1004600008D001212000A84701213443E0B2A84769
:1004700005B0F0BD002126432000A847F3B20021BB
:1004800018000293A847039B0199FE18012720003A
:10049000B770736998470028EAD105233900B37013
:1004A0002000A84739000298E1E7C046DD020000BD
:1004B00088000020391400006D13000010B5124BA5
:1004C000984700281FDBD022104C52002000104B10
:1004D00000219847FF20631C0E4AA234FF34190004
:1004E0001870133120330A604A608A60A342F6D143
:1004F000094C0A490020A04709490120A0470220D1
:100500000849A047002010BDAD0F00008800002062
:100510009B23000011030000CD15000039040000EA
:10052000150300004103000010B5014B984710BDB2
:10053000A915000010B5014B984710BD81100000AF
:1005400010B5014B984710BDD110000010B5014BFC
:10055000984710BDDF100000F8B5104C06000D00E4
:100560001700A047002813DAFF20A047041E12DB63
:100570003A00290030000A4B9847002807DB094B56
:1005800064011A195670032200201540E554F8BD85
:1005900014204042FBE71520FBE7C046DD020000C7
:1005A000ED10000088000020002110B582B2024B3F
:1005B0000800984710BDC0465905000070B5074BAC
:1005C00005009847041E07DB054B28009847054B9C
:1005D00064011C19FF23637070BDC046DD0200007A
:1005E000B51100008800002070B50C4B050098473D
:1005F00000280FDB0A4C4001035D24185A42534186
:100600000133A3702800074B9847002801DA002324
:10061000A37070BD12204042FBE7C046DD0200001F
:100620008800002031120000F0B5037A8BB005007D
:1006300001931800354B98476B7A061E03936C683C
:1006400062DB334B06A8984773010093009A314B45
:100650009E18B37804AAD71D3B703B78DBB2029397
:10066000029A2D4B012A1DD10232B27006A898477A
:10067000284B009AD35C002B25D0019BDA09039B01
:10068000591E8B41DBB2297A2D6807A80795446073
:10069000002A36D080220A434372204B02729847C8
:1006A0000BB0F0BD06A898473B780220DBB2052BC3
:1006B000F6D0062B04D00120002BF1D1132000E04E
:1006C00010204042ECE7F27CB37C12029B189BB2F4
:1006D000002B05D104221C00029BB2701A00D2E745
:1006E0009C4200D91C000B49009A8C466244127B44
:1006F0007F2A04D99C429B4101225B42C3E700232D
:10070000ECE70F220A40C7E71220DAE7DD0200001B
:10071000A102000088000020AF0200009114000038
:10072000F8B504000D1E1BD1124B9847061E1EDBA8
:1007300002212000104FB847002810D029002000C7
:10074000B84700280BDB0D4B76019E1903210123CE
:10075000F170B3702A00F369200098472800F8BDB3
:10076000054B012900D0022120009847F7E712200D
:100770004042F4E7DD0200006D1300008800002015
:1007800070B50F4B15000C009847002D00D10D4D92
:10079000002805DB012C09D0002C02D0022C0AD045
:1007A00070BD094B400118184561F9E7064B40013F
:1007B00018188561F4E7044B40011818C561EFE78C
:1007C000DD02000011030000880000200368002BF8
:1007D00003D101600B60704713001A68002AFBD137
:1007E00019600A60F7E700000300A020584310B525
:1007F000034B0230032198476423584310BDC04681
:10080000292200000139FDD87047000010B5094BBE
:1008100002205A685A60084B9847084B9847084B83
:100820009847084B9847084B9847FF20074B984735
:1008300010BDC04600400041710900009D08000045
:10084000B508000089080000ED080000510800000C
:10085000C30709D4830706D5074A084B5A62084ADA
:1008600059681142FCD17047064A044B1A62044A87
:1008700059681142FCD1EDE7070101000018004062
:10088000FD070000060101000822034B9A71043A9B
:100890005A71033A1A71704700040040F821044B62
:1008A0004901DA690A40DA6100221A617047C046DC
:1008B000001000408E220B4B10B51A750A4A022018
:1008C000110014780442FCD11022D8681042FCD0E8
:1008D00080201A7D02431A750E230A781A42FCD131
:1008E00010BDC046000C0040380C00401B480222DE
:1008F00030B504001A4B19681A4B890E1A83057813
:100900001542FCD1802252001000DD681542FCD057
:10091000154A1A62DA680242FCD0802289029200EB
:100920000A43DA61932252001A83253AFF3A21786A
:100930001142FCD11A8B520705D480225200D9688B
:100940001142FCD005E090210901DA680A408A4290
:10095000FBD1064A5368002BFCD130BD380C004057
:1009600020608000000C004080BB010400180040A3
:1009700080230321DB059A780A40904209D0FF22A8
:100980009A719A7808408A43104398709A79002A9D
:10099000FCD0704700207047002803D0002901D008
:1009A0000230C0B21423013043430148C0187047DD
:1009B000280200200F2370B50100807C072503402A
:1009C0001A00CC7C083225405B01012D09D0822120
:1009D0005201C90552181021D171124A9B1859723F
:1009E00070BD40252C4206D08026AC43CC740D4C03
:1009F0001C196671A5710825CC7C5201AC43CC74DE
:100A0000002409493031C9188C728C768221C905BD
:100A100052186F21D171034A9B185972034B9B687E
:100A20009847DDE7FF00004128040020280200204D
:100A300020220F238A4010B50400807C0549034022
:100A40005B015B18D2B25A72034BA2681B69012189
:100A5000984710BDFF0000412802002010B5030098
:100A6000807CFF2809D04024DA7C224205D0A243B2
:100A7000DA74024A14699A68A04710BD280200205F
:100A8000F7B5252401AD837C2C70241994466C7035
:100A9000FF2B1CD04027C47C3C4218D00F2423409D
:100AA0001C0008346601002912D08227FF05F619C0
:100AB0008027377182226401D205A418074A695C35
:100AC0005B019B18E17159726146054B9847F7BD70
:100AD0008222D205B6187771ECE7C046FF000041CC
:100AE0005D0A0000F7B50F22847C01AF14400B3A79
:100AF0003A7004327A702200822508320B00ED052C
:100B000061015601002B25D0AD5D6D066D0F2A4E9B
:100B10003036B4461E017618B4446646B67AF6B24C
:100B2000022D1BD1013D2E4218D06446A47A5201F9
:100B3000AC436546AC728225FC5CED055219D4715C
:100B40001E4A89184C72591E8B410422D9B21C4B83
:100B50009847F7BDAE5D07253540D8E702252E4002
:100B60001AD06646B67AC47CAE436546AE7282261B
:100B7000FD5C5201F6059219D571104A89180722B9
:100B80004D722240012AE4D16206E2D5C17CC90936
:100B90008B42DED00022DAE76000074AC01830320C
:100BA000000112189672074A6401A418034AFB5CFC
:100BB0008918E3714B72CCE728040020FF00004144
:100BC000810A00000001004170B50B4D8C232C0000
:100BD000FF269B001434ED1803212000074B984793
:100BE0000021A674E1741434AC42F5D104486022AB
:100BF000044B3030984770BD280200205D0A000089
:100C0000280400209B230000F0B50F2585B000913B
:100C1000837C04001D4001936B01029300239942E1
:100C200006D04D4B6A0130339B185B699B049B0CCB
:100C3000268A4A4A0396964202D0721E92B20392C4
:100C4000E27C9446072261461140009A0291002AF4
:100C500004D043496A0152180221D171A268676821
:100C60009918A1606A01B94240D260467F1ABBB2AE
:100C7000394F80062ED5321C9E4200D91A1C23689B
:100C800096B259183200374BE0689847324BE26809
:100C900069015B181A646B01FF187B6CB604B20C17
:100CA0009E0BB60316437E647B6C2F4A13407B6415
:100CB000009B002B08D1029B4E22012B00D0043A4E
:100CC0002A496B015B189A72254B6D01ED18802340
:100CD0006B713AE080201E1C8001834200D9061C03
:100CE0002368BA185918B6B21164D4E710276046C1
:100CF00038420ED0E37C6A01BB43E374164B1A49B9
:100D00009B185A6C920B92035A645A6C0A405A64AC
:100D1000CEE7029801281AD14B25144812185572B3
:100D2000039A13409E420CD14025E37C0198AB43CB
:100D3000E3740F4BDB689847002806D1E37C2B4314
:100D4000E374002120000B4B984705B0F0BD074825
:100D50004A251218E3E7C04628040020FF030000DC
:100D60000001004189230000FF3F00F0FF00004127
:100D7000280200205D0A00000F23F0B5827C87B0B6
:100D80001A40530104000D1E0192059368D0059A84
:100D9000674B9B18586B0001820C03925F6BBF047A
:100DA000BF0C238A0293029A624B9A4203D013002B
:100DB000013B9BB202930723E27C029E13403E401C
:100DC0000493002D05D0019B5B495B015B18012159
:100DD000D97193060DD56268002A0AD0A0682368ED
:100DE000121A92B21818E168964200D23200534BA0
:100DF0009847019A63685101002B34D11020E27C9E
:100E0000024200D18BE0824320331A43E274484B04
:100E1000059AE1689B181963218A1A0048485B6BA0
:100E20008904090903400B435363536B9B0B9B03DA
:100E30005363002D0DD1019B04995A0125230129EB
:100E400004D13B4B30339B189D762D233D495218DE
:100E50009372019B384A5B019B1840221A711FE074
:100E600003910F009DE7002D1CD0228AB24219D9B0
:100E70001022E37C9343E374A368DF19A760049B0B
:100E8000012B48D12F4BC9182D234B72019B002BEE
:100E900002D1274BE2681A63002120002A4B9847B1
:100EA00007B0F0BDA668039AB44662441000A26081
:100EB0009342E4D920269B1AE27C9BB2278A3242D5
:100EC00012D0381C9F4200D9181C019A83B25001DD
:100ED000174AE46810180463154A19485218516BF0
:100EE0009B041B0901409EE7BB420DD98026B60139
:100EF000B3420ED8029A93432468019A20185401F1
:100F00000B4A14192063E7E7BB42F5D21643E67497
:100F1000F2E73300F0E70B4BC9182523B5E7002DA6
:100F2000A3D1A268039B94466344A360A7E7C0468D
:100F300028040020FF030000000100418923000075
:100F4000FF3F00F0FF0000415D0A00008023020027
:100F50009B0007209A4214D8013BFF3B01389A427C
:100F60000FD80138802A0CD80138402A09D8013816
:100F7000202A06D80138102A03D806309042804132
:100F800040427047084B1A8B520705D4802252000A
:100F9000D9681142FCD005E090210901DA680A40C5
:100FA0008A42FBD17047C046000C0040822310B536
:100FB000DB059A78D2070FD4032299781142FCD12D
:100FC00002211A780A4242D182230122DB051A70DB
:100FD000023299781142FCD182210123C9058A7815
:100FE0001A42FCD1214B224A1A605A609A60DA6098
:100FF0001A61204B98471F201F4B19684B0B8A0C16
:1010000089010340490F10401F2B00D11A3B1F28B4
:1010100000D10238072900D102399A018223024304
:101020000903DB050A431A850322D9781143D970D5
:101030000C21D8780143D970042119709878104098
:10104000FCD10E4A30325A6201221A8110BD1A7840
:101050008A431A708223DB05032219009878104214
:10106000FCD102238A781A42FCD1ADE72802002085
:1010700095090000C90B00001C60800028040020B6
:1010800082230322DB059978114219D19978114204
:10109000FCD102221978C9B2114208D040220A4B71
:1010A00000201A608223094ADB051A8370470A432D
:1010B00082211A700323C9058A781A42FCD1EDE710
:1010C00011204042F2E7C04600E100E08D0200003E
:1010D00082220121D20513898B431381704780231B
:1010E00018438223DB05987270470000F7B500268D
:1010F0006B460F24009001929E5704400F002B4B2B
:10110000F10F20009847032305001F40022C44D80C
:10111000837CFF2B44D1002F0FD1F143234BC90F08
:1011200020009847837CFF2B3AD1F33B6343204A4E
:101130009B58002B36D1132030E0002E16DA0C22FB
:1011400062431B4B9B185A68002A1BD10C23634334
:10115000174CE4186368EB606B469B8800202B8279
:101160006B461B780137EF74AB74FEBD0C236343F1
:101170000F4A9B58002B0BD00C2262430C4B9B1840
:101180001B8900E05B89019A9342D4DB002EDDDBF2
:101190000C235C43064BE358DDE712204042E4E7B2
:1011A0001420FBE7002EE7DAC9E7C04699090000E2
:1011B000AC230000F7B50F2543B2DF0F05400193C4
:1011C000040039002800174B98470600022D15D857
:1011D000837CFF2B12D00322134B39009847072240
:1011E000F37C1340012B0AD18223002208346401CE
:1011F000DB05E2540023F374FF33B374F7BD63B22D
:10120000002B07DA7022094B6D01ED186B789343C0
:101210006B70EFE7054B6401E418637893436370E8
:10122000E8E7C04699090000810A0000FF0000417C
:10123000F7B50F2544B20540E10F464B280098470B
:10124000454B6901CE1872780700D2B2022D00D941
:101250007BE0837C0193FF2B00D176E03F4DC37C84
:1012600030356D1807201900014001293BD1772442
:10127000144000D06CE0112373703B8A0093180077
:10128000374B9847E0230007DB051840009B354AA1
:101290009B03134003436B60009B40219B049B0C0A
:1012A0008022184368610F20B1717271019AAC728B
:1012B00002402A485201AC7685182800FE682E6349
:1012C0006D6B9E03284B2B4033434363436B9B0B57
:1012D0009B034363204BD318B0225A71A03A9971F3
:1012E0009A722000FEBD002C17DA70201400044012
:1012F0002ED11B010340134373703F8A184B3800F3
:101300009847E0230007DB0518408023BF04BF0C8B
:10131000384368617371AC76E3E71040041E17D15F
:101320005B075B0F134373703F8A0D4B3800984780
:101330000C4ABB031340E0220007D20510401843BB
:1013400040236860B371AC72CBE712204042C9E71A
:101350001420FBE799090000FF0000412804002049
:101360004D0F000000C0FF0FFF3F00F0F8B5070071
:101370000F25C4092F400E00380021002B4B984741
:10138000022F50D8012E15D11022A240837C28496B
:101390001D406B01D2B25B185A712023A340254A2D
:1013A0006D01DBB2AD18AB720823C27C1343C3746A
:1013B0000020F8BD837C002E2AD182222B405B01C5
:1013C000D20599181B4A9B181022A240DD792A42A7
:1013D000EED0D2B25A712022A240D5B25D721E7AEE
:1013E000324204D00122A240D2B21D725A710723A8
:1013F000C27C1340012B08D1FF31CB7930210B4047
:10140000D6D128398A43C274D2E708239A43FAE72F
:101410001D40074B6D01ED181023A340A87918401B
:10142000431E9841C5E712204042C2E799090000D7
:1014300000010041FF000041F8B50F231840114B97
:10144000440130331B190F0019685D68AD04AD0C01
:10145000022812D8002F10D00B4BE4186378112B00
:101460000ED11026237A0020334205D008223800FE
:10147000064B984728002672F8BD12204042FBE731
:101480001320FBE728040020FF000041892300000F
:10149000F0B50F25037A87B01D405BB20193DB0FD7
:1014A000039319000700384B28009847374A038AEE
:1014B00004001E00934201D05E1EB6B27A68164048
:1014C0000296022D5DD83D6831498D420BD93148D5
:1014D0005119814207D803210D4004D101990029F7
:1014E0000EDB9A4206D2E3680125002B08D11320B7
:1014F000404215E0029B002B14D0E368002B40D043
:10150000E37C02201B070BD4234B05A89847E17C02
:1015100040230E00214A1E4006D005A89047012016
:1015200007B0F0BD029DEBE70B43E37405A89047BD
:101530007F213B6823607B68A6606360039BDA01C0
:10154000E37C0B40134369011D0020239D430D43A1
:10155000E5747B7A002B03D0029E73425E41F6B2A3
:101560001022E37C360193431E43019BE674002165
:101570002000002B03DA0A4B98470020D0E7094BE4
:10158000FAE71220B4E7C04699090000FF03000003
:10159000FFFFFF1FFF9F0020A1020000AF0200001D
:1015A000090C0000790D0000002900D1054901282F
:1015B00002D1054B596070470028FCD1024B1960DD
:1015C000F9E7C0469509000028020020002900D153
:1015D0000749002802D1074B99607047012802D1C2
:1015E000044BD960F9E70228F7D1024B1961F4E7FF
:1015F00095090000280200208223F7B5DB051A8C2C
:10160000634D92B20192002A56D19A8B1F8B04200F
:1016100017403A00024003D098832B689847F7BDE3
:101620008021890039401FD05A4999839982923983
:10163000FF391983584B198F0907090F032908D05F
:1016400019005831088811000007000F032807D13E
:10165000012252019A180023118F13874904490D62
:1016600003206B689847DAE780223E00164003D0DB
:101670009A836B680520F5E770223C00144009D07E
:101680009A839A82434A1A83444B98476B68310085
:101690000220E7E70826390031400BD040494C7062
:1016A0009E839A823B4A1A833E4B98476B6821007F
:1016B0000120D7E7FC0726D42C000027012614348C
:1016C000A27CFF2A3ED00F231A4033009340019999
:1016D000194237D0344953015B183149520152182D
:1016E0001B78927A13402DD0142247217A43AA18EE
:1016F0001032D27D1140012915D1DA0609D520001A
:101700002A4B98471EE0234C9C839C821A836B686B
:10171000A8E74021194001D0310001E09B0611D516
:101720002000234B0DE051B200291ADA5906F3D4F8
:10173000190701D531001BE0990708D531002000B9
:101740001C4B9847013714341B2FB9D167E7072189
:101750000A40012AF6D100215A0709D4DB06F1D547
:10176000CDE72021194001D00021D9E7580702D543
:101770002000114BE5E7334203D0310020000F4B2E
:10178000DFE707210A40012ADCD11A07E6D5D1E7B5
:10179000280200200102000028040020850F00001C
:1017A000FF000041C90B000007010041B50900001E
:1017B000310A0000090C0000E50A0000790D000064
:1017C000F0B516000A7885B0530601900C009B0F07
:1017D000012B56D1637909792C4D1B020B432978D3
:1017E000994202D0697899424BD152B2002A12DA5A
:1017F0000020012E0DD06378212B18D1E279A37936
:1018000012021A43072A3FD10300A91D0198204C58
:10181000A04705B0F0BDE379A7791B021F431D4B1C
:10182000984763780100202B03D0222B1AD00D207B
:1018300028E0072F28D1002E02D133003A00E5E737
:101840003A0002A8144CA0472B69002B05D1A81D13
:10185000072202A9A0470020DBE702A8984700283A
:10186000F5D1F8E700230A4E1A0019001800B04716
:101870006B69002BEFD0E078A27800021043984704
:10188000E9E70A204042C4E70120FBE77805002091
:101890001D1C00002120000089230000F7B5150061
:1018A000012950D0002904D01B2002290AD00D2084
:1018B00008E08368106800931E000233019300283B
:1018C00002D10A20404220E00821437982788B43EC
:1018D000022BF6D133789A425FD0FF2B5FD1327062
:1018E00069680522304B9847041E0FD128680422EE
:1018F00003786968C0182C4B9847019B0136B342A6
:10190000DDD101222000294B5A71FEBD6379227975
:101910001B02A778D21892B2E1783800244B98477E
:1019200000283ED17BB2234A002B09DAB770380079
:1019300090472C602078696820181F4B9847D3E7A0
:10194000009B1F71F3E78468002A05D01368082202
:101950005B799343022BB4D12378FF2B07D0FF256B
:10196000A0782570A84202D0144B9847A5706378E0
:10197000FF2B07D0FF25E0786570A84202D00F4BFF
:101980009847E5702079FF2803D00C4B9847FF2338
:1019900023710020054B5871B7E7122092E71C20F5
:1019A00090E714208EE7C046412000007805002013
:1019B00059050000E90500005B200000BD0500009E
:1019C00010B50A4B984701280CD80948094B00620A
:1019D000C3611830084B984701200849084B9847C5
:1019E000002010BD11204042FBE7C0462D20000022
:1019F000780500209D180000C91F0000000000208D
:101A0000551F000010B5074B0A0059790400002942
:101A100005D0187921000023034CA04710BD1120E8
:101A20004042FBE7780500201D1C000010B5074B65
:101A30000A0059790400002905D0D8782100012333
:101A4000034CA04710BD11204042FBE77805002061
:101A50001D1C000010B50A00032810D8094B00F027
:101A6000CFFB02080A0C18790221074B9847002087
:101A700010BDD878F8E71961F9E75961F7E70D204B
:101A80004042F5E77805002081070000014B5879B6
:101A90007047C04678050020064B10B51C69002C25
:101AA00000D110BD200063680022012198472468FE
:101AB000F5E7C0469C05002070B505000E00064BFA
:101AC000DC68002C00D170BD6368002B02D03100AF
:101AD000280098472468F4E79C050020F8B5050025
:101AE0000E0017000B4B9C68002C01D12000F8BDA4
:101AF0006368002B01D12468F6E73A003100280022
:101B00009847002804D00A30F5D001204042EEE783
:101B10000120ECE79C050020054B10B55C68002C0B
:101B200000D110BD6368002B00D098472468F6E709
:101B30009C05002010B51400002903D0012923D0F2
:101B4000002010BD1378002BFAD15378052B0FD04D
:101B5000092BF5D1D1789378090219430D4BD97629
:101B60004A1E91410331997601200B4B9847E7E7D4
:101B70000A4B90789847E178A378090219434B1EE5
:101B80009941044B0231EEE70A00054B2100002089
:101B90009847D5E79C050020B91A00004D050000C4
:101BA000DD1A000070B5002402260C4B98470C4D3E
:101BB00020000C4BAE76EC766C7798470A4B287F6A
:101BC00098470A4D21002000094AA8473100094AD8
:101BD0002000A8472000084B984770BD991A0000C4
:101BE0009C050020BD050000A9050000810700003C
:101BF000391C0000351B0000E905000010B5002865
:101C000002D0012803D010BD024B9847FBE7024BDE
:101C10009847F8E7B91A0000A51B00001FB501ACF2
:101C2000207263722000034B01910292984704B026
:101C300010BDC04629060000F7B5B34B00220400D2
:101C40000D0098470022431C00D15AE10132904216
:101C500000D156E129781F230A009A4304D0802A34
:101C600000D1B1E000224CE1687801380A28F9D8A7
:101C700000F0BCFA42F854F80BF8F8F806F85E00E9
:101C8000AA78002A05D1A14B984700220123110010
:101C9000CBE09F4D2B6803CB9E4B9847021E00D193
:101CA0002FE1C37881781B02C91889B241189A4B79
:101CB000042201919847FF230090009A002AE4D063
:101CC00096789E4216D02F69002F0AD100980422E0
:101CD00003780199C018904B00909847330000900A
:101CE000EBE76A46002138007B6898470028EDD072
:101CF0003F68E9E71E00E9E70229B3D1EE79AB7945
:101D000036021E43AED131002879844B9847012317
:101D1000320031002000824CA047F1E00229A1D11D
:101D2000EB79AE791B021E439CD128790139ECE78F
:101D3000EC78AB7824021C432B796D79744E2D021C
:101D40001D433368F27E03CB724B9847002889D03D
:101D500004220090C37881781B02C91889B2411807
:101D60006D4F0191B847002800D17BE78378AB42E3
:101D700010D1C378A3420DD137690090002F00D154
:101D800070E701216A4638007B689847011E08D039
:101D90003F68F3E70098042203780199C018009087
:101DA000E0E77B686A4638009847002800D059E78A
:101DB000002C04D00122AA40737F134373770023C1
:101DC0001A0019001800A6E768780A2800D949E720
:101DD00000F020FA680048FF48FF48FF48FF48FF2E
:101DE0000B0048FF600048FF8500E978AA780902E7
:101DF00011430B0A022B1FD0032B3BD0012B00D029
:101E000030E7EB79AA791B0213431D1C122B00D972
:101E100012253F4B01221B68ADB203CB3E4B9847C6
:101E20000023011E00D11DE72A0020003C4CA047E2
:101E300042424241D2B264E0AB79ED7901312D02E8
:101E40001D43334BCAB21E7F1B6803CB314B9847EF
:101E5000011E00D106E7C37882781B02D21892B225
:101E600000239542E0D9013E35406B426B4115009D
:101E7000DBB2D9E7AB79ED79CAB22D021D43244B11
:101E80001E7F1B6803CB274B9847011E00D1E9E654
:101E90000278E5E71E49CB7E4A6913704969002341
:101EA000012237E71F23194001290CD9022900D04C
:101EB000D8E62879194B98470022904221DB01236C
:101EC0001840009001E000230093114D0222694662
:101ED000154B686998470023022269691AE70C4E7E
:101EE0006B792A79707F1B0213431841012420402B
:101EF0002ED173692200187071690300084DA8473C
:101F000001221000FEBDC046DD1A0000991A000033
:101F10009C050020792000004120000021070000DE
:101F20001D1C0000B5200000892300002A000221AA
:101F3000200063689847002803DA2468002CF5D154
:101F400090E6736901221870002371691800E2E6B7
:101F50003469F3E710B5012809D0002802D002281F
:101F600008D010BD05480430054B9847F9E70348F1
:101F70000830F9E701480C30F6E7C0469C05002020
:101F8000CD07000070B50A4B0500984700280EDB0E
:101F9000084C2022084B0021200098476561074922
:101FA0000020074CA04701200649A047002070BD33
:101FB000BD0400009C0500209B230000191B0000AD
:101FC00029050000FD1B000010B501000248034B6D
:101FD0001030984710BDC0469C050020CD0700007A
:101FE00010B50A4B9C7E002C0BD100280CD0026847
:101FF0001860D2791A7701229A76054B984720000B
:1020000010BD04204042FBE70920FBE79C050020AF
:102010003505000010B5014B984710BD4105000083
:10202000014B58697047C0469C050020034B987EC1
:102030001023184200D018007047C0469C050020AD
:1020400010B5884201D3002010BD0378012BFAD9C6
:1020500044789442F8D0C018F3E7884201D30020B6
:1020600070470378012BFAD94278042AF7D0052A61
:10207000F6D0C018F1E7000070B50D4B1500022234
:102080000C00984700280FD170BD0378012B0DD9A3
:102090004378022B0AD14379AB42F5D0C2788378DA
:1020A00012029B189BB2C018A042EED30020EBE7AF
:1020B0004120000070B50D0016000024A84201D395
:1020C000002070BD03222900054B98470028F8D056
:1020D0000378012BF4D9B442F3D0C0180134EDE7F2
:1020E0004120000010B5034B9847034B9847002050
:1020F00010BDC046150100009D21000010B5402113
:102100000248034B9847002010BDC046BC05002084
:10211000051A000010B511000248034B9847002033
:1021200010BDC046BC0500202D1A000037B50125A2
:1021300001AA031C10801D420AD00649064C00204B
:10214000A04706492800A04740210548054B98476D
:1021500000203EBD15210000551A0000FD200000A2
:10216000BC050020051A0000064810B5064B40309B
:102170009847064B9847064B06489847064B9847A2
:1021800010BDC046BC050020851F0000C11900001D
:10219000E11F0000080000201520000070B50A4B68
:1021A00098470028FBD009490320094BFA25984796
:1021B0004026AD00074B28001E60074CA047074B88
:1021C00028001E60A047F5E78D1A00002D210000B1
:1021D000551A000094000060BD02000098000060E5
:1021E00010B5014B984710BD6921000002B471463B
:1021F00049084900095649008E4402BC7047C04650
:1022000002B4714649084900095C49008E4402BC89
:102210007047C04603B47146490840004900095E52
:1022200049008E4403BC7047002243088B4274D39C
:1022300003098B425FD3030A8B4244D3030B8B42C7
:1022400028D3030C8B420DD3FF22090212BA030CD0
:102250008B4202D31212090265D0030B8B4219D3B1
:1022600000E0090AC30B8B4201D3CB03C01A5241D1
:10227000830B8B4201D38B03C01A5241430B8B4219
:1022800001D34B03C01A5241030B8B4201D30B0302
:10229000C01A5241C30A8B4201D3CB02C01A524129
:1022A000830A8B4201D38B02C01A5241430A8B42EC
:1022B00001D34B02C01A5241030A8B4201D30B02D5
:1022C000C01A5241CDD2C3098B4201D3CB01C01AEF
:1022D000524183098B4201D38B01C01A52414309F9
:1022E0008B4201D34B01C01A524103098B4201D3E7
:1022F0000B01C01A5241C3088B4201D3CB00C01A54
:10230000524183088B4201D38B00C01A52414308CB
:102310008B4201D34B00C01A5241411A00D20146F0
:10232000524110467047FFE701B5002000F006F863
:1023300002BDC0460029F7D076E770477047C04617
:1023400070B500260C4D0D4C641BA410A64209D19B
:10235000002600F03DF80A4D0A4C641BA410A6426A
:1023600005D170BDB300EB5898470136EEE7B300D6
:10237000EB5898470136F2E7DC230000DC2300002D
:10238000DC230000E0230000002310B59A4200D1B6
:1023900010BDCC5CC4540133F8E7030082189342AB
:1023A00000D1704719700133F9E7000038050020AB
:1023B0000000000040000000F804002000000000C1
:1023C00040000000B80400200000000040000000B1
:1023D000F8B5C046F8BC08BC9E467047DD0000005A
:1023E000F8B5C046F8BC08BC9E467047B500000072
:1023F00000000000C1170000100000206500002050
:102400001201000202000040EB030424000100005E
:1024100000010902430002010080320904000001AA
:10242000020200000524000110052401010004241B
:10243000020205240600010705820340000A090480
:102440000100020A00000007050102400000070524
:082450008102400000000000C1
:00000001FF
