:100000002020002025010000210100002101000026
:1000100000000000000000000000000000000000E0
:1000200000000000000000000000000021010000AE
:10003000000000000000000021010000210100007C
:100040002101000021010000210100002101000028
:100050002101000021010000210100002101000018
:100060002101000021010000210100002101000008
:1000700021010000210100002101000021010000F8
:1000800021010000210100002101000021010000E8
:1000900021010000210100002101000021010000D8
:1000A00021010000210100002101000021010000C8
:1000B0000000000010B5064C2378002B07D1054B3B
:1000C000002B02D0044800E000BF0123237010BDC4
:1000D00000000020000000003C040000084B10B5A8
:1000E000002B03D00749084800E000BF0748036819
:1000F000002B00D110BD064B002BFBD09847F9E731
:1001000000000000040000203C0400003C0400004B
:100110000000000010B5014B984710BDD101000050
:10012000FEE7000010B51A4A1A4B9A4211D01A0085
:10013000194B9A420DD2194A03339B1A9B0801337B
:100140009B000022134812498C58845004329A4272
:10015000FAD1134A134B9A420AD2D34311495B187E
:1001600003218B4304339B18002102C29342FCD12C
:100170000D4AFF210D4B8B4393600D4A53687F3925
:100180000B4353600B4B98470B4B9847FEE7C04619
:100190003C040000000000200000002004000020BB
:1001A000000000202000002000ED00E00000000022
:1001B00000400041D5030000B103000010B5024823
:1001C000024B984710BDC04610E000E01502000049
:1001D00010B50C4B9847C023DB05402294215A50A0
:1001E0000C395A50084B683208499950C021090609
:1001F0009950C6215A5C012082435A54044B9847B7
:1002000010BDC046510200000028004040000040E0
:10021000BD01000010B5024B1860024B984710BD9D
:100220001C0000204903000010B5044B1C68044B5F
:10023000984701002000034B984710BD1C00002088
:10024000490200005D030000FA231B015843704778
:1002500010B5094B5A685A600220084B9847084B62
:100260009847084B9847084B9847084B9847FF20FA
:10027000074B984710BDC046004000411F030000D7
:10028000CD020000E5020000B90200001D030000DD
:1002900095020000C30707D5044A054B1A621900EE
:1002A000044A4B681342FCD17047C0460601010066
:1002B00000180040FD070000034B08229A71043A21
:1002C0005A71033A1A71704700040040044BDA690E
:1002D000F82149010A40DA6101221A617047C046DB
:1002E0000010004082220C4B1A7518003821803A09
:1002F000435C1342FCD108491022CB681A42FCD05F
:10030000054A137D80210B431375100048390E22D6
:10031000435C1342FCD17047000C004070478023BF
:10032000DB059B780322134098420CD08022D20533
:10033000FF239371937803218B43084018439070F7
:100340009379002BFCD07047024B034A5A60052278
:100350001A60704710E000E0FFFFFF0070B50B0E61
:100360005E1EF6B2002B13D034000E4A0E4D8020D4
:1003700040025560956013680342FCD0013CE4B232
:10038000FF2CF6D13306F61A084B9C4661447118CF
:10039000044B596099601900802252020B68134285
:1003A000FCD070BD10E000E0FFFFFF00010000FF87
:1003B000F8B5064B9847C025ED059C274026044C10
:1003C000EE51FA208000A047FAE7C0461501000070
:1003D0002902000070B500260C4D0D4C641BA410C2
:1003E000A64209D1002600F019F80A4D0A4C641BF8
:1003F000A410A64205D170BDB300EB589847013652
:10040000EEE7B300EB5898470136F2E72804000006
:1004100028040000280400002C040000F8B5C046A1
:10042000F8BC08BC9E467047DD000000F8B5C04629
:0C043000F8BC08BC9E467047B5000000F8
:00000001FF
