:10000000382600202D0100002901000029010000F0
:1000100000000000000000000000000000000000E0
:1000200000000000000000000000000029010000A6
:10003000000000000000000029010000290100006C
:100040002901000029010000290100002901000008
:100050002901000029010000CD1B0000290100003A
:1000600029010000290100002901000029010000E8
:1000700029010000290100002901000029010000D8
:1000800029010000290100002901000029010000C8
:1000900029010000290100002901000029010000B8
:1000A00029010000290100002901000029010000A8
:1000B0000000000010B5064C2378002B07D1054B3B
:1000C000002B02D0044800E000BF0123237010BDC4
:1000D0006800002000000000DC2B0000084B10B579
:1000E000002B03D00749084800E000BF0748036819
:1000F000002B00D110BD064B002BFBD09847F9E731
:10010000000000006C000020DC2B0000DC2B000055
:100110000000000010B5024B9847024B984710BDF5
:1001200091020000B92A0000FEE7000010B51A4A4B
:100130001A4B9A4211D01A00194B9A420DD2194A01
:1001400003339B1A9B0801339B000022134812497A
:100150008C58845004329A42FAD1134A134B9A4273
:100160000AD2D34311495B1803218B4304339B18F4
:10017000002102C29342FCD10D4AFF210D4B8B435B
:1001800093600D4A53687F390B4353600B4B98477C
:100190000B4B9847FEE7C046DC2B00000000002018
:1001A00068000020040000206800002038060020BD
:1001B00000ED00E00000000000400041C52A000002
:1001C000DD290000F0B5C64600B5C024E405802254
:1001D0005204A2601A4B8027FF059F621949996259
:1001E00062615820195C0422904691431954195CAD
:1001F0000126B14301252943C9B219541C38195CA1
:100200000B329143093A1143195480218904A160AA
:100210009F620D4F9F62616159215C5C424694432D
:100220005C545A5CB2432A43D2B25A541A5C4A39DB
:100230000A4051310A431A5404BC9046F0BDC046EE
:1002400000280040000100C0000200C041219023AE
:10025000064AD150064B1969802252010A431A619D
:100260009A6901210A439A617047C046001800400C
:100270000004004010B5034B9847034B9847034BCD
:10028000984710BD4D02000061050000C501000047
:1002900010B50C4B9847C023DB05402294215A50DF
:1002A0000C395A50084B683208499950C021090648
:1002B0009950C6215A5C012082435A54044B9847F6
:1002C00010BDC04631090000002800404000004039
:1002D00075020000EFF31083036072B6BFF35F8F07
:1002E0007047BFF35F8F036883F310887047000087
:1002F000F0B504000E4B5A78904217D0002300202E
:100300000B4D0F2727402E0008E0013040B20D288A
:100310000AD02033F2185278A24206D0595D002943
:10032000F3D19742F1D100E00E38F0BD0020FCE798
:10033000840000200020704770B504000D000A4BB7
:1003400098474201094B9B189A780023032A01D051
:10035000180070BD4001054B181883692900200062
:1003600098470300F4E7C046F10200008400002033
:10037000F0B585B005000F001600514B98470400FA
:10038000002F62D14F4B420199180020C870D35CF6
:10039000002B0ED062014B4B9B1801229A70640116
:1003A000484B1C19E178E36932002800984705B0F2
:1003B000F0BD8B78032B0CD0424B62010C329A18A3
:1003C00064011C1960780021E36998470223A37037
:1003D000EDE73C4A0B000C254D5761010C315218DA
:1003E0005878DB6901219847002817D06201354B06
:1003F0009B1805229A70033ADA70002D09DB64011C
:10040000304B1C1960788023184301212E4B9847EC
:10041000CDE764012B4B1C196078F6E76401294B8A
:100420001C190423A3706378002201920292002D0C
:1004300008DB8032134301A8037201234372234B6C
:100440009847B4E70F221340F5E7012F0AD0022F97
:100450001DD0032F2CD042011A4B9B1806229A70F4
:10046000DA709CE7174B420199180220C870D35CE0
:10047000002B05D06201134B9B1805229A708EE762
:1004800002228A70002128000F4B984787E70D4B06
:10049000420199180420C870D35C002B05D062017A
:1004A000084B9B1801229A7079E702238B707EE734
:1004B0004201044B9B1800229A700532DA706EE7F5
:1004C000F102000084000020991700006519000067
:1004D000F0B5C64600B504001D4B9847060045011F
:1004E0000C351C4B5D19290020001B4B9847C0B2EE
:1004F00008280AD001212000184DA8478020204359
:100500000121A84704BC9046F0BD00212000134BF8
:10051000984698478027274300213800C04772013A
:100520000C4B9B1801229A705B69290020009847A8
:100530000028E7D17601074B9E190523B3700121EE
:100540002000064CA04701213800A047DAE7C0464A
:10055000F102000084000020F91800009917000043
:1005600010B5144B9847002822DB134CD0225200C0
:1005700000212000114B9847631C2000A230FF305F
:10058000FF240F4A1C70190013310A6004310A60FD
:1005900004310A6020338342F4D10A4900200A4C16
:1005A000A0470A490120A04709490220A04700208E
:1005B00010BDC0464D110000840000201F2B00001C
:1005C00035030000D10400009D1B0000390300002A
:1005D0007103000010B5014B984710BD791B000056
:1005E00010B5014B984710BD3912000010B5014BF2
:1005F000984710BD9112000010B5014B984710BDEF
:100600009F120000F8B505000E0017000F4B984729
:10061000002814DAFF200D4B9847041E12DB3A0025
:10062000310028000A4B9847002807DB094A64017B
:1006300013195D7003231E40A6540020F8BD14203A
:100640004042FBE715204042F8E7C046F1020000B7
:10065000AD1200008400002010B582B200210020FD
:10066000014B984710BDC0460506000070B5050057
:10067000064B9847041E07DB2800054B984764018A
:10068000044B1C19FF23637070BDC046F1020000CB
:10069000D91300008400002070B504000E4B984769
:1006A000051E15DB43010D4A9B5C5A425341013341
:1006B00041010A4A521893702000094B98470028BC
:1006C00000DB70BD6D01054B5D190023AB70F8E7D1
:1006D00012204042F5E7C046F102000084000020ED
:1006E000A9140000F0B5D6464F464646C0B586B0C0
:1006F0000400077A3800404B98470500667A636823
:100700009846002800DA71E004A83C4B98476A013B
:100710003B4B9B189A7817236B441A701B78012B5C
:1007200010D004A8374B984717236B441B78DBB2D3
:10073000052B5ED0062B23D00120002B3CD11320AB
:10074000404239E02E4B99466B019A464B46534442
:1007500003229A7004A82B4B98474B465246D35C11
:10076000002B10D0237A721E9641F6B222680192B5
:10077000424602927FB2002F17DB0F22134016E091
:100780001020404218E06B011D4AD218D17C0902AA
:10079000937C5B189BB2002B14D10423937000222E
:1007A0000126237A2168019102928022134301A835
:1007B00003724672144B984706B01CBC904699468B
:1007C000A246F0BD42469A4200D91A006D010C497A
:1007D0004D19297B7F2905D8237A2168019102923E
:1007E0000026CAE79A42B6417642DAE71220404232
:1007F000E2E70220E0E7C046F1020000D502000077
:1008000084000020E30200006519000070B50400B8
:10081000002905D0012921D00221134B984770BD32
:10082000124B9847051E1CDB022120000E4B9847F7
:100830000028F4D0002120000B4B98470028EEDB65
:100840006D010B4B5D190123AB700233EB70EB694B
:1008500000220321200098470020E0E7024B984740
:10086000DDE712204042DAE799170000F1020000AC
:100870008400002070B50D0014000F4B9847030052
:10088000221E08D0002B05DB012D0BD0002D04D03B
:10089000022D0CD070BD094AF4E74001084B18182E
:1008A0004261F7E74001064B18188261F2E7400108
:1008B000034B1818C261EDE7F10200003503000098
:1008C00084000020002800D100BE70470368002B80
:1008D0000AD08B420AD01B68002B03D09942FAD170
:1008E000012000E0002070470020FCE70120FAE72B
:1008F00070B505000E0004680A4B98470123584064
:10090000C0B24F220849094B98472B68002B03D1EE
:100910002E60336005E01C002368002BFBD12660AD
:10092000336070BDCD080000302B0000C50800000A
:1009300010B5094B5A685A600220084B9847084B7B
:100940009847084B9847084B9847084B9847FF2013
:10095000074B984710BDC04600400041A90A00005F
:10096000C5090000DD090000B1090000150A0000FA
:1009700075090000C30707D5094A0A4B1A62190016
:10098000094A4B681342FCD1830707D5074A054B38
:100990005A621900044A4B681342FCD17047C046A2
:1009A0000601010000180040FD07000007010100DA
:1009B000034B08229A71043A5A71033A1A7170472C
:1009C00000040040044BDA69F82149010A40DA6169
:1009D00000221A617047C046001000408E220C4B66
:1009E0001A75180038218C3A435C1342FCD108492F
:1009F0001022CB681A42FCD0054A137D80210B439C
:100A00001375100048390E22435C1342FCD1704725
:100A1000000C004010B5204B1C68A40E02221F4B96
:100A20001A8318003821435C1342FCD11B498022F1
:100A30005200CB681342FCD0194A184B1A621900B5
:100A400080225200CB681342FCD0A40280239B007A
:100A50002343124AD36193235B0013831000382190
:100A60000222435C1342FCD10C4B1B8B5B070BD562
:100A70000A4990221201CB6813409342FBD1094AE4
:100A80005368002BFCD110BD044980225200CB6872
:100A90001342FCD0F3E7C04620608000000C004009
:100AA00080BB0104001800408023DB059B780322F3
:100AB000134098420CD08022D205FF239371937883
:100AC00003218B430840184390709379002BFCD08E
:100AD000704700207047000070B5837C0F221340E0
:100AE000C17C083A0A40012A0BD05A011A498C46A7
:100AF00062441021D1715B01184A94466344197015
:100B000070BD4A060FD5C27C40218A43C2745A0187
:100B10008224E405A446624480258224640015559D
:100B20000624FF341155C27C08218A43C2740C4943
:100B30005A018C180025A572A5761300064CA44610
:100B400063446F24DC71054B9C4662441470807CC6
:100B50008B6E9847D4E7C046000100410801004170
:100B60002402002010B520228A40D2B2817C0F23BB
:100B70000B405B0105498C4663441A708268807C97
:100B8000034B1B6F0121984710BDC046080100416F
:100B90002402002010B5837CFF2B02D0C27C5206B9
:100BA00000D410BDC27C4024A243C27482680248B3
:100BB000046F1800A047F4E72402002030B583B08A
:100BC000837C01AC2525257025356570FF2B1BD056
:100BD000C47C640618D50F242340002916D05C017C
:100BE0000E4DAC4664448025257101AC645C59010E
:100BF0000A4DAC466144CC715B0109498C466344A3
:100C00001C701100074B984703B030BD5C01034DC9
:100C1000AC46644440256571E7E7C04600010041E9
:100C200008010041950B000070B582B0837C0F2253
:100C3000134001AA04241470043454705D01002987
:100C400032D01A00083252018224E405145D640691
:100C5000640F0A015219304DAA18957AEDB2022C90
:100C60002BD0AC0742D5C57C947A0226B44394724B
:100C700001AA545C5A01294EB4466244D4715B0106
:100C8000274A944663441C7007232B40012B40D114
:100C9000C37C5B063DD5C37CDB09994239D0002279
:100CA0001900204B984734E01A0008325201822480
:100CB000E405145D07221440CBE7EC07D1D5947A04
:100CC0000125AC43947201AA545C5A01134DAC4601
:100CD0006244D4715B01124A944663441C704B1EFB
:100CE0009941C9B204220F4B984712E05A0052189A
:100CF0001201094882180020907201AA515C5A0121
:100D0000064884466244D1715B01054A94466344B7
:100D1000197002B070BDC0462402002000010041DD
:100D200008010041BD0B0000F0B5C64600B50D4DF1
:100D30002C007434A4239B009C4665440A4B9846BF
:100D4000FF27002603212000C047A774E67414344F
:100D5000AC42F7D1602200210248044B984704BC02
:100D60009046F0BD24020020950B00001F2B0000D0
:100D7000F0B5C64600B504000E00837C0F251D406B
:100D8000002900D1AAE06A015A4B9B1858698004D7
:100D9000800C238A584A934200D19AE0013B9AB2D0
:100DA000E37C07271F40002E05D06B0153498C467A
:100DB00063440221D971A368C118A1606368994294
:100DC0004AD25B1A9BB2E27C920635D5228A101C6D
:100DD00092B29A4200D9181C83B2984623689C4666
:100DE00061444246E068464B9847E1686A01414BDE
:100DF0009B1819616A013F4B9B185A694146890447
:100E0000890C920B92030A435A615A693D490A4080
:100E10005A61002E07D1012F59D04A226B013A495D
:100E20008C4663441A706D01344B9C4665448023A4
:100E30006B7104BC9046F0BD1A1C80208001834277
:100E400001D9324B1A8893B29846236859186A011F
:100E5000284B9B181961CDE7E37CDB060FD5E37CBB
:100E600010229343E3746A01224B9B185A69920B38
:100E700092035A615A6923490A405A61C9E7012F0E
:100E80000ED06D01224B9C4665444A232B70218A6B
:100E9000024091420BD0002120001E4B9847C8E72A
:100EA0006D011B4B9C4665444B232B70EFE7E37CA5
:100EB00040229343E374A07C0E4BDB6EA1689847FD
:100EC0000028B6D1E37C40221343E374E3E74E22CB
:100ED000A4E7E77C07231F40074A66E7038A064A20
:100EE0000020934200D059E7E37C07271F400020F1
:100EF000014A60E724020020FF03000000010041D6
:100F00000D2B0000FF3F00F0090100414E2B0000B7
:100F100008010041950B0000F8B5DE4657464E46E5
:100F20004546E0B504008846837C0F251D40002916
:100F300057D06A017D4B9B185A681201920C924659
:100F40005F68BF04BF0CBB46068A794B9E4200D146
:100F5000CDE0013EB6B25F463740E37C07221A403F
:100F600091464346002B05D06B01724A9446634478
:100F70000122DA71E37C9B060FD56368002B39D020
:100F8000A0681B1A9BB2226894466044E1681A006C
:100F9000BB4200D93A00684B98476368002B29D0C0
:100FA0004246002A42D0228ABA423FD9E37C10222C
:100FB0009343E374A3685B44A3604B46012B00D1C9
:100FC00087E06B015D4A9446634425221A70002D28
:100FD00002D1564BE2681A6000212000584B984716
:100FE00059E0068A524B9E4200D18EE000239B4678
:100FF0009A46AEE7E37CDB0600D47FE0E37C102278
:10100000934320221343E374484A6B01E1689950EB
:10101000218AD3185A68890409094A4802400A43B8
:101020005A605A68920B92035A6022E0A2685244B6
:10103000A2609342C1D99B1A9BB2E17C890630D54C
:10104000228A111C92B29A4200D9191C8BB2E06814
:101050006A01364950506A01344989184A689B042C
:101060001B093848024013434B604B689B0B9B03A2
:101070004B604346002B08D125224B46012B2FD035
:101080006B0131498C4663441A706D01294B9C46B3
:10109000654440232B713CBC90469946A246AB4622
:1010A000F8BD218A8B420AD9802189018B420DD853
:1010B000B34321688A1869011C480A50CBE78B4268
:1010C000F7D2E17C20200143E174F2E780239B0109
:1010D000EFE76B01194A944663442D221A7076E7B4
:1010E0006A01124B9B1800229A762D32C8E7BF0581
:1010F000BF0DC37C07221A40914635E74346002BBB
:101100000CD1A3685344A36057E7C37C07221A405D
:101110009146002700239B469A462BE7238ABB4231
:1011200000D943E7A3685344A36046E724020020A4
:10113000FF030000000100410D2B000008010041E9
:10114000950B0000FF3F00F00901004110B582231C
:10115000DB059B78DB0724D48221C90503228B7829
:101160001342FCD18223DB051B789B0710D582221A
:10117000D205137802218B431370110003228B7860
:101180001342FCD18221C90502228B781342FCD183
:1011900001228223DB051A70190002328B78134278
:1011A000FCD18221C90501228B781342FCD11E4B50
:1011B0001E4A1A665A669A66DA661A671C4B984780
:1011C0001C4B1B685A0B1F210A40980C01409B01C5
:1011D0005B0F1F2A21D01F2921D0072B21D092017C
:1011E0000A431B0313438222D2051385D3780321BC
:1011F0000B43D370D3780C210B43D37004231370AB
:10120000110003228B781342FCD18223DB05064AAE
:101210005A6201221A81002010BD1A3ADBE7023916
:10122000DBE7023BDBE7C04624020020D30A0000D4
:10123000290D00001C6080008223DB059B789B0742
:101240001ED18221C90503228B781342FCD182234F
:10125000DB051B78DBB29A0709D4022213438222F2
:10126000D2051370110003228B781342FCD1402267
:10127000054B1A60054A8223DB051A83002070475C
:1012800011204042FBE7C04600E100E08D02000073
:101290008222D205138901218B4313817047802359
:1012A00018438223DB05987270470000F0B50F24C5
:1012B000044043B29C46002C54D02500002B07DB91
:1012C000032319402700022C50D91220404225E068
:1012D000A51CF5E76346002B21DB7B00DB199B0097
:1012E0003B4C1B59002B66D17B00DF19BF00384BEC
:1012F000FF58384BAE007419A4001C1980342760C5
:1013000060337419A4001C19A284273401312170A0
:101310007519AD005B19263318700020F0BD7B00F5
:10132000DB199B002A4CE3185B68002B06D17B007D
:10133000DF19BF00264BDF197F68DAE77B00DB1976
:101340009B00234CE3185B899342F0DA1320404260
:10135000E4E714204042E1E714204042DEE7132096
:101360004042DBE70323194000250027AB005B194F
:101370009E00184B9B1986331B78FF2BE9D100295F
:10138000A8D1002C04D06346002B01DB0234E4B268
:10139000A3001B199B000F4CE41886342378FF2B05
:1013A000DAD17B00DB199B00094C1B59002BD6D0EE
:1013B0006346002BB3DB7B00DB199B00044CE31876
:1013C0001B89934200DB8FE713204042A6E7C0460B
:1013D000502B000024020020F8B505000F24044023
:1013E00047B2002C10D02000002F02DB022C02D9C3
:1013F000F8BDA01CFAE70600013083001818800031
:10140000274B6033181802E0254874300026B300DB
:101410009B199A00224B9B1886331B78FF2BE7D031
:10142000F90F03221F4B9847B3009B199A001C4BDE
:101430009B188033DA7907231340012B1CD0002F2F
:1014400021DB6D018223DB059C466544802252002E
:10145000AB5C07218B43AB54114B6033B1008A194D
:1014600092009A182732002010708E19B6009B192E
:101470002633FF221A70BBE708356D010022822354
:10148000DB05EA54E8E764018223DB059C466444FB
:1014900080225200A35C70218B43A354DCE7C0463A
:1014A00024020020BD0B0000F0B50F22024040B224
:1014B000002A00D195E0130000280CDB110008324F
:1014C00052018224E405155DEDB2022900D890E0B6
:1014D00012204042E8E0931CF0E776322A4277D1AE
:1014E0008222D20594466444112080225200A054E6
:1014F0009A00D2189500A44A60325219928C950332
:10150000A248054080208000824200D9CDE0013809
:10151000FF38824200D91FE1802A00D90CE1402A1D
:1015200000D921E1202A00D90EE1102A00D923E1B7
:10153000F838904280414042060735437D6092046E
:10154000920CB9E070222A4245D18F489E00F218D1
:10155000920082188032D2795207520E15438222AD
:10156000D2059446644480225200A5546030F61897
:10157000B6008019808C8504AD0C0132FF32072340
:10158000904214D8013AFF3A013B90420FD8013BF8
:1015900080280CD8013B402809D8013B202806D8D8
:1015A000013B102803D8F83A8242924153421B076C
:1015B0002B437B61802282235B00E2544901724B02
:1015C000591800238B7600206EE0122040426BE019
:1015D0001420404268E01420404265E0142040425C
:1015E00062E080235B008222D205D55CEDB200214F
:1015F00000239A00D2189400634A12198632127896
:10160000FF2AE2D04C01604A17199E00F618B60076
:1016100092198032D67907223240012A00D15CE744
:1016200000288FDB6A07D9D157489E00F218920034
:1016300082188032D2795207520F15438222D20586
:101640009446644480225200A5546030F618B600D7
:101650008019858CAB034D4818400132FF320723B7
:10166000954214D8013AFF3A013B95420FD8013B0D
:10167000802D0CD8013B402D09D8013B202D06D8E8
:10168000013B102D03D8F83AAA42924153421B075E
:1016900003437B6040220623FF33E25449013A4B67
:1016A000591800238B720020F0BDE020C0050543CF
:1016B0007D609204920C0720000702437A610625A0
:1016C000FF354026665582277F008022E2552E484E
:1016D0004901411800228A728A7660329446844415
:1016E0009900CA1892006244263214780F222240D0
:1016F000CC18A40004198034246852011450C9186D
:1017000089006144898C8018436889040909204C48
:1017100023400B43436043689B0B9B03436082233E
:10172000DB05D318B021D9555E551A4B9C4662444F
:10173000102313700020B7E7A020C00505437D608B
:101740009204920C0520B7E7C020800505437D6018
:101750009204920C0320AFE7C020C00505437D60D2
:101760009204920C0620A7E78020C00505437D6007
:101770009204920C04209FE78020800505437D6041
:101780009204920C022097E72402002000C0FF0F71
:10179000FF3F00F009010041F0B50F23034040B2C4
:1017A000C40F002B09D01A00002804DB022B05D936
:1017B0001220404219E09A1CF8E70022012915D0B6
:1017C000002936D093009B189B00474AD2188632D6
:1017D00012780F2313405B01444A9446634498797E
:1017E0001023A3401840431E9841F0BD1025A5408A
:1017F000EDB23D49900083189B00CB1886331E78CC
:101800000F2333405E01394FBC4666447571202575
:10181000A540ECB25B01364DAC4663441C708218A7
:1018200092008A188032D37908210B43D3710020AB
:10183000DBE793009B1899002B4B5B1886331B78D2
:101840000F210B405D018221C9058C46654483212F
:1018500049006E5CF639A14000200E42C5D0C9B2E5
:101860000530FF3029542021A140C8B25B01214E30
:10187000B446634418700823FF33EB5C0B4209D075
:101880000823FF33E854073BFF3BA340DBB2822130
:1018900049006B5493009B189900134B5B188033DD
:1018A000D97907230B40012B0BD093009A18920093
:1018B0000D4B9B188033DA7908218A43DA710020B6
:1018C00093E70633FF33E95CD63B0020194200D092
:1018D0008BE793009A189200034B9B188033DA79B8
:1018E00008218A43DA7180E72402002000010041C8
:1018F000090100410801004170B50D000F23184097
:101900004401164B1B1919685B689B049E0C022846
:101910001BD8002D1CD08223DB059C466444802309
:101920005B00E35C112B16D10823FF33E35C00203E
:10193000DB0600D470BD08222800094B984710220E
:101940000823FF33E2543000F4E712204042F1E76D
:1019500012204042EEE713204042EBE72402002031
:101960000D2B0000F0B5DE4657464E464546E0B525
:1019700085B08046067A0F23334076B2002B00D123
:10198000D3E01800002E39DB0400734A6032411C9A
:101990008D006D18AD005519810009188900521885
:1019A000918C6E4A91422BD04F1EBFB24246526874
:1019B0001740022B00D9A4E043461B6868488342C5
:1019C00020D998180190674884460198604519D835
:1019D0009B0717D1002E32DB914200D9AFE0002FD8
:1019E00030D0A3001B199A005B4B9B1880331B68F7
:1019F000002B00D18BE0002399460FE0981CC3E731
:101A00000F00D3E7A3001B199A00534B9B18803398
:101A10001B68002B00D177E001239946A3001B1916
:101A20009A004D4B9B188033DB7902201B070CD5A5
:101A300005B03CBC90469946A246AB46F0BD00239B
:101A40009946EBE700239946E8E703A8464B9847F9
:101A5000A3001B199A00404B9B188033DB795B066F
:101A600044D4A3001B199B003B4A93469B4480230C
:101A70005B449A46DB79402213435246D37103A854
:101A80003A4B98475B46424612685A67424652684C
:101A90009A6700235A46D367F20FD2015346D97989
:101AA0007F230B40494649011343202293430B43B4
:101AB0005246D37143465B7A0022002B02D07A4211
:101AC0007A41D2B2A3001C19A400234B1B19803306
:101AD0001201DF7910218F431743DF71002E0ADBDB
:101AE00000212800224B98470020A1E703A81F4BA4
:101AF000984701209CE7002128001E4B98470020B2
:101B000096E71220404293E71320404290E71220CC
:101B100040428DE7132040428AE743465A689705C2
:101B2000BF0D0D4D7435002446E70B4A6032918C91
:101B30000A4A9142F1D0084D7435002434E7A300DD
:101B40001B199A00044B9B1880331B68002BE1D0B3
:101B50000123994662E7C04624020020FF030000EB
:101B6000FFFFFF1FFF9F0020D5020000E3020000DF
:101B7000190F0000710D00000B1E06D0012806D0C1
:101B8000002801D1034A13667047034BF6E7014A68
:101B90005366F9E724020020D30A00000B1E08D088
:101BA000002808D0012809D0022806D1054A136769
:101BB00003E0054BF4E7034A93667047014AD36696
:101BC000FBE7C04624020020D30A0000F0B5C64659
:101BD00000B58223DB051E8CB6B2002E05D0844CE6
:101BE00074340025824B9846C2E0998B1B8B0B40C6
:101BF0005A0718D49A0520D41A0643D470221A42E0
:101C00004AD11A0766D4DB07E9D58223DB05794A76
:101C10009A839A82923AFF3A1A83754B5B6E00213F
:101C20000420984706E004228223DB059A83704B48
:101C30001B6E984704BC9046F0BD8223DB056D4ABD
:101C40009A839A82923AFF3A1A83694B1B891B073F
:101C50001B0F032B0CD0664B1B8D1B071B0F00218A
:101C60006F3A032B05D0624B5B6E03209847E1E788
:101C7000002252015E4B9B1819894904490D00222C
:101C80001A81F0E780228223DB059A83584B5B6E32
:101C9000002105209847CDE78223DB059A839A82AD
:101CA000544A1A83544B1B8B5B070CD55249902224
:101CB0001201CB6813409342FBD14D4B5B6E002168
:101CC00002209847B6E74C4980225200CB68134265
:101CD000FCD0F2E78223DB050021802252009954D8
:101CE000F83A9A8368329A82424A1A83434B984759
:101CF0003F4B5B6E0021012098479BE7CB0607D442
:101D00004B0608D48B062ED500213D4B98472AE080
:101D10003C4B984727E00121394B984723E04B067D
:101D20000ED40B0710D48B0712D407231A40012AB4
:101D300019D14B0710D4CB0615D5324B984712E07A
:101D400001212F4B98470EE001212F4B98470AE0C5
:101D500001212E4B984706E000212B4B984702E0CB
:101D60000021274B9847013514341B2D00D161E722
:101D70002000A17CFF29F6D00F230B4001219940C0
:101D80000E42F0D05901224FBC466144C9795B0133
:101D9000204FBC4663441B781940E4D0AB005A196D
:101DA000920042447032D27D47231340012BA5D0CC
:101DB00053B2002BB3DB8B06D2D44B070CD4CB072A
:101DC0000ED407231A40012ACDD10B070CD4CB0621
:101DD000C9D50C4B9847C6E700210B4B9847C2E783
:101DE00001210D4B9847BEE70121074B9847BAE701
:101DF0002402002001020000000C0040290D000018
:101E0000650B0000D90A0000290C0000710D0000CC
:101E10000001004109010041190F0000F0B583B035
:101E200006000C0015000A7853069B0F012B00D00A
:101E30006CE0097963791B020B433B4909789942AD
:101E400003D039494978994263D152B2002A0EDB56
:101E5000A779E3791B021F43344B98476378202B03
:101E600018D0222B3CD00D20404203B0F0BD012DF4
:101E700052D06378212B51D1A279E3791B0213430D
:101E8000072B4ED100230722274908313000284C68
:101E9000A047EAE7072F34D1002D1AD0072201000E
:101EA0006846244B9847204B1B69002B05D0684699
:101EB000984703000020002BD7D01B4A130000993D
:101EC00091606A4692889A816A4692799A73002054
:101ED000CBE70023072201003000154CA047C4E7E0
:101EE0000023002200210020114DA8470E4B5B6902
:101EF000002B09D0A278E078000210439847002018
:101F0000B3E701204042B0E70020AEE70A2040429C
:101F1000ABE70A204042A8E70020A6E70D20404298
:101F2000A3E701204042A0E774050020A12800009B
:101F3000512300000D2B0000F0B5DE4657464E46FB
:101F40004546E0B583B01600012968D000290BD0C2
:101F5000022900D193E00D20404203B03CBC9046E2
:101F60009946A246AB46F0BD8368984610680028A3
:101F700000D187E00193012343449B46474F484BE0
:101F800099468278437908218B43022B02D00A209C
:101F90004042E2E701998A460B789A4275D0FF2BBE
:101FA00076D10A70052271683E4B9847041E1ED1F7
:101FB00030680378C018042271683A4B9847019B37
:101FC0005B4527D0019B013301930028D9D10A201A
:101FD0004042C2E753469D702800314B9847346019
:101FE000207820187168304B9847041EE0D0A578FF
:101FF00063791B022279D21892B2E1782800B8479F
:10200000002848D16BB2002BE4DB43461D71280049
:10201000C847E4E70122254B5A7100209DE78468F8
:10202000002A08D013685B7908229343022B02D060
:102030000A20404291E72378FF2B08D0FF2323702A
:10204000A078FF2803D01A4B9847FF23A37063782A
:10205000FF2B08D0FF236370E078FF2803D0144BD8
:102060009847FF23E3702079FF2803D0104B98474F
:10207000FF23237100220D4B5A7100206DE71B20B6
:1020800040426AE70A20404267E71220404264E784
:102090001C20404261E7142040425EE70506000034
:1020A00099060000BD280000F328000074050020F8
:1020B0006D06000010B50A4B984701280CD8094856
:1020C000094BC36100621830084B9847084901204A
:1020D000084B9847002010BD11204042FBE7C04646
:1020E000AD28000074050020391F000045280000BD
:1020F00000000020AD27000010B50400074B5B79FD
:10210000002B07D0054B187900230A002100044C4E
:10211000A04710BD11204042FBE7C04674050020D7
:102120005123000010B50400074B5B79002B07D04A
:10213000054BD87801230A002100044CA04710BDAC
:1021400011204042FBE7C0467405002051230000E7
:1021500010B5012810D0002806D0022814D003287A
:1021600016D00D20404206E00B4B18790A000221E0
:102170000A4B9847002010BD074BD8780A0002216F
:10218000064B98470020F6E7034B19610020F2E761
:10219000014B59610020EEE774050020750800002E
:1021A000014B58797047C0467405002010B5064BA6
:1021B0001C69002C07D00022012120006368984789
:1021C0002468002CF7D110BD9805002070B50600DA
:1021D0000D00074BDC68002C03D170BD2468002C77
:1021E000FBD06368002BF9D0290030009847F5E751
:1021F00098050020F8B507000E0015000D4B9C68EF
:10220000002C04D1002011E02468002C0DD063685C
:10221000002BF9D02A00310038009847002806D05A
:102220000A30F1D00120404200E00020F8BD01203A
:10223000FCE7C0469805002010B5064B5C68002CF2
:1022400003D110BD2468002CFBD06368002BF9D0AB
:102250009847F7E79805002010B51400002903D02F
:10226000012929D0002010BD1378002BFAD1537812
:10227000052B11D0092BF5D19278124BDA76A37881
:10228000E178090219434B1E994103310D4B9976B0
:1022900001200D4B9847E5E790780C4B9847A378C1
:1022A000E178090219434B1E99410231054B997699
:1022B0000120054B9847D5E7012221000020044B5F
:1022C0009847CFE798050020CD210000F9050000D0
:1022D000F521000010B50D4B98470D4C0223A37655
:1022E0000023E376637700200A4B9847207F0A4B50
:1022F00098470A4A00210020094CA047094A0221B8
:102300000020A0470020084B984710BDAD210000D9
:10231000980500206D060000590600006D2300009E
:1023200075080000592200009906000010B5002829
:1023300002D0012804D010BD0020034B9847FAE7D3
:10234000024B9847F7E7C046CD210000D522000098
:1023500010B584B001AC019102922072637220002A
:10236000014B984704B010BDE5060000F0B5C64625
:1023700000B584B005000C000022B54B9847431C03
:102380000DD0012301280BD022781F23110099437F
:102390000BD0CBB2802B00D1F8E0002300E000236B
:1023A000180004B004BC9046F0BD63780B2B00D934
:1023B000E4E19B00A749CB589F460123002200215E
:1023C0002800A54CA04743424341DBB2E8E7A2788E
:1023D000002A1AD0A14B1B6859681868A04B98476F
:1023E000002800D1D4E1C3781B028178C91889B2D2
:1023F0004118039104229B4B98470290002806D075
:10240000FF24964F974B98461AE0974B9847012325
:10241000002200212800904CA04743424341DBB2F8
:10242000BEE7340000E0340002980378C018029040
:10243000039B019304221900C04702900028E6D0B4
:102440008678A642F0D03C69002CEAD002AA00218E
:102450002000636898470028E5D02468002CF5D157
:102460003400E1E71F231A400023022A98D1A37900
:10247000E27912021A430023002A00D090E7207963
:1024800000217A4B98470123002200212800724C3A
:10249000A047012384E71F231A400023022A00D00B
:1024A0007EE7A379E27912021A430023002A00D0C2
:1024B00076E7207901216D4B984701230022002106
:1024C0002800654CA04701236AE7A378E5782D0230
:1024D0001D432379647924021C43604A1368D27E29
:1024E000596818685E4B9847002847D00290C37817
:1024F0001B028178C91889B2411803910422594BF3
:10250000984700283CD0574E08E002980378C0183E
:10251000029004220399B047002833D08378A34265
:10252000F3D1C378AB42F0D102904C4B1E69002E20
:102530002AD002AA0121300073689847002804D0ED
:102540003668002EF5D100232AE7736802AA00211D
:10255000300098470023002800D021E7002D05D047
:102560003E490122A2404B7F13434B7700230022B8
:1025700000210020384CA047012311E700230FE77A
:1025800000230DE700230BE7002309E76378062B00
:1025900033D0D9B2062922D9082B00D1AFE00A2BBB
:1025A00000D0EDE02D4B5A7F217963791B020B435C
:1025B0001A41D30700D4CAE0284B1D690023002D1F
:1025C00000D1EDE62200022128006B689847002820
:1025D00000DBC8E02D68002DF4D10023E0E6002BDD
:1025E00000D0CDE01F231A40D3B2012B00D892E0D7
:1025F000022A00D19FE00023D2E6A378E2781202FB
:102600001A43130A022B33D0032B56D0012B01D0CF
:102610000023C5E6A279E3791B0213431A1C122B8F
:1026200000D9122294B20D4B1B6859681868012218
:102630000C4B9847002800D1A4E0002322000100A1
:102640002800054CA04743424341DBB2A8E6C04600
:10265000F5210000742B0000512300009805002094
:1026600039290000BD280000AD2100000D08000040
:10267000A379E67936021E43464B1F7F1B68013261
:10268000D2B259681868444B9847011E7CD0C37871
:102690001B028478E418A4B20023A64205D9013FA6
:1026A0003E4073427341DBB22600320028003B4CAF
:1026B000A04743424341DBB272E6A379E1790902C4
:1026C00019430C00334B1E7F1B68D2B2596818683F
:1026D000334B9847011E59D002780023944206D903
:1026E000731E2340180043424341DBB21400220012
:1026F00028002A4CA04743424341DBB250E6254B19
:10270000DA7E59690A705969002301222800234C96
:10271000A047012344E6002302931E4C022202A993
:102720006069204B984761690023022228001B4CF6
:10273000A047012334E6207902211B4B984700284B
:1027400003DB012318400290E7E7002328E6114B42
:10275000002259690A7059690023013200200F4C88
:10276000A04701231CE60B4B5A69107059690023DE
:1027700001220020094CA047012311E600230FE6A7
:1027800000230DE600230BE6002309E6002307E6FD
:10279000002305E698050020392900005123000098
:1027A000A12900000D2B00000D08000010B5012824
:1027B00009D0002802D002280AD010BD07480430F2
:1027C000074B9847F9E705480830054B9847F4E769
:1027D00002480C30024B9847EFE7C04698050020AE
:1027E000F108000070B50400431E9841C0B20C4AC5
:1027F0000C490D4B98470D4B984700280EDB0C4DAC
:102800002022002128000B4B98476C610A490020C8
:102810000A4CA0470A490120A047002070BDC046CD
:1028200055030000A42B0000C5080000610500004E
:10283000980500201F2B000039220000D50500005C
:102840002D23000010B5010002481030024B9847BC
:1028500010BDC04698050020F108000010B50B4BD4
:102860009B7E002B0CD100280DD0084B186002680D
:10287000D2791A7701229A76054B9847002010BD2D
:1028800004204042FBE709204042F8E79805002079
:10289000E105000010B5014B984710BDED050000A3
:1028A000014B58697047C04698050020024B987E3E
:1028B000C30600D5102070479805002010B5884247
:1028C00011D20378012B10D9447894420AD0C01851
:1028D000814206D90378012B09D944789442F6D174
:1028E00000E0002010BD0020FCE70020FAE70020F7
:1028F000F8E7884215D20378012B14D94278042ACC
:1029000013D0052A0CD0C018814208D90378012BB6
:102910000DD94278042A0CD0052AF4D100E0002019
:1029200070470020FCE70020FAE70020F8E70020CD
:10293000F6E70020F4E7000070B50C001500022255
:10294000164B984700281DD084421CD90378012BD0
:102950001BD94378022B1AD14379AB4212D0C278EB
:10296000120283789B189BB2C018844209D903785D
:10297000012B0ED94378022B0DD14379AB42EED116
:1029800000E0002070BD0020FCE70020FAE70020F6
:10299000F8E70020F6E70020F4E7C046BD28000075
:1029A000F8B50D001700884212D200240A4E032207
:1029B0002900B04700280ED00378012B0AD9A7427E
:1029C00009D00134E4B2C0188542F0D8002002E0FA
:1029D000002000E00020F8BDBD28000010B5034B2A
:1029E0009847034B9847002010BDC04615010000D2
:1029F000992A000010B582B0031C01AA1080DB07E1
:102A000002D4002002B010BD05490020054CA047AB
:102A100005490120A04740210448054B9847F0E7AD
:102A20004D2A000051210000352A0000B805002081
:102A3000F920000010B540210248034B98470020C0
:102A400010BDC046B8050020F920000010B51100E7
:102A50000248034B9847002010BDC046B80500202F
:102A60002521000010B506484030064B9847064B1C
:102A700098470648064B9847064B984710BDC046F6
:102A8000B8050020E5270000B52000000800002060
:102A90005D2800009528000010B5044CA0470028D0
:102AA000FCD003490320034B9847FEE7A121000017
:102AB000F52900005121000010B5014B984710BDC9
:102AC000652A000070B500260C4D0D4C641BA41047
:102AD000A64209D1002600F071F80A4D0A4C641B89
:102AE000A410A64205D170BDB300EB58984701363B
:102AF000EEE7B300EB5898470136F2E7C82B000029
:102B0000C82B0000C82B0000CC2B0000002310B500
:102B10009A4200D110BDCC5CC4540133F8E70300E5
:102B20008218934200D1704719700133F9E7000011
:102B30002E2E2F68616C2F7574696C732F737263FE
:102B40002F7574696C735F6C6973742E6300002059
:102B5000340500200000000040000000F4040020C4
:102B60000000000040000000B4040020000000004D
:102B7000400000007C270000642400007C27000047
:102B8000962400007C270000BA2300007C27000068
:102B90007C2700007C270000CE2300007C2700005B
:102BA000CA2400002E2E2F7573622F646576696328
:102BB000652F75736264632E63000000F8B5C0462C
:102BC000F8BC08BC9E467047DD000000F8B5C04662
:0C2BD000F8BC08BC9E467047B500000031
:102BDC00000000001D1E00001000002065000020F9
:102BEC001201000202000040EB030424000100006B
:102BFC0000010902430002010080320904000001B7
:102C0C000202000005240001100524010100042427
:102C1C00020205240600010705820340000A09048C
:102C2C000100020A00000007050102400000070530
:082C3C008102400000000000CD
:00000001FF
