:1000000060200020250100002101000021010000E6
:1000100000000000000000000000000000000000E0
:1000200000000000000000000000000021010000AE
:10003000000000000000000021010000210100007C
:100040002101000021010000210100002101000028
:100050002101000021010000210100002101000018
:100060002101000021010000210100002101000008
:1000700021010000210100002101000021010000F8
:1000800021010000210100002101000021010000E8
:1000900021010000210100002101000021010000D8
:1000A0003D060000210100002101000021010000A7
:1000B0000000000010B5064C2378002B07D1054B3B
:1000C000002B02D0044800E000BF0123237010BDC4
:1000D0001400002000000000F4070000084B10B5D9
:1000E000002B03D00749084800E000BF0748036819
:1000F000002B00D110BD064B002BFBD09847F9E731
:100100000000000018000020F4070000F4070000C1
:100110000000000010B5014B984710BD41020000DF
:10012000FEE7000010B51A4A1A4B9A4211D01A0085
:10013000194B9A420DD2194A03339B1A9B0801337B
:100140009B000022134812498C58845004329A4272
:10015000FAD1134A134B9A420AD2D34311495B187E
:1001600003218B4304339B18002102C29342FCD12C
:100170000D4AFF210D4B8B4393600D4A53687F3925
:100180000B4353600B4B98470B4B9847FEE7C04619
:10019000F4070000000000201400002004000020EC
:1001A000140000206000002000ED00E000000000CE
:1001B00000400041590700004507000010B5042227
:1001C000C023DB055A600A490A4B8B62C0231B0619
:1001D0008B624223CA5C012082430243D2B2CA54DA
:1001E00031228B5C0F24A3430343DBB28B5410BD3D
:1001F0000028004004000040054AD16980235B01CB
:100200000B43D361402180235B00024AD1507047E9
:10021000000400400018004010B5044B9847044902
:100220000448054B9847054B984710BDF90100005D
:100230000030004234000020F5020000BD01000043
:1002400010B5024B9847024B984710BD550400006B
:100250001902000010B50A23024A0021024CA047EF
:1002600010BDC04600000020D503000010B5084CAA
:1002700000212000074B9847074A00212000074B28
:1002800098470A23064A00212000064CA04710BDCB
:1002900034000020490300005502000089030000DB
:1002A00000000020D503000010B508384368002B7B
:1002B00000D0984710BD000010B5CB00C3189C6952
:1002C000002C0AD0013C9C61002C07D10300083BA4
:1002D0001B68002B01D00838984710BD5A69941C40
:1002E0005C6153880A001900014B9847F5E7C04646
:1002F000ED05000070B504000D00002818D00800BE
:10030000431E9841C0B238220A490B4B984720003F
:1003100008302900094B9847002808D1084BA360F2
:10032000084BE3600023E36123626362A36270BD54
:100330000020E8E7A00700004D04000021050000B0
:10034000B9020000A902000070B505000C000028E9
:1003500011D0002301228A425B41D8B20123184008
:100360005D220649064B9847280008302100054BBE
:100370009847002070BD0020F0E7C046A0070000AD
:100380004D0400007505000070B505000E00140056
:10039000431E9841C0B276220B490C4B9847002E61
:1003A00004D0012E0DD00D20404209E02C60621EC9
:1003B0009441E2B2280008303100054B98470020F4
:1003C00070BD6C60F3E7C046A00700004D0400005C
:1003D00001060000F0B5C64600B504000D00170088
:1003E0009846002822D00020012919D98F221349CC
:1003F000134B98472600083629003000114B9847C8
:10040000002817D0EB00E418E761434623623988DF
:100410002A0030000C4B9847002004BC9046F0BDE9
:10042000002A05D01800431E9841DFE70020DDE7D1
:100430000020DBE70D204042EFE7C046A0070000A8
:100440004D040000CB050000ED050000002800D1A0
:1004500000BE704710B5094B5A685A600220084B1D
:100460009847084B9847084B9847084B9847084BC4
:100470009847FF20074B984710BDC04600400041F9
:100480001B070000C9060000E1060000B5060000D9
:10049000190700009106000010B504001D4BC0189C
:1004A00043425841C0B2F4221B491C4B9847A368F1
:1004B000DB0718D40322A3681A42FCD123789B07D8
:1004C0000BD523780222934323700132A3681A428A
:1004D000FCD10222A3681A42FCD10123237003221B
:1004E000A3681A42FCD10122A3681A42FCD1062358
:1004F00063700023A370A3810222A3681A42FCD177
:100500000023E3810222A3681A42FCD1012323764F
:10051000002010BD00D0FFBDBC0700004D0400004E
:1005200070B504000D00431E9841C0B260220C4912
:100530000C4B984728000C4B984700280FD1256199
:100540000A4B1C600A4B8022520480215A50BFF390
:100550004F8FBFF36F8F0131FF315A501A6070BD5A
:10056000BC0700004D04000099040000300000208A
:1005700000E100E010B5012900D910BD03691A7827
:10058000022082431A7001309A681042FCD14A005E
:100590009A18908902242043908102209A68104280
:1005A000FCD11A78022002431A7001309A68104276
:1005B000FCD1002904D10131DA790A42FCD0DCE710
:1005C0000221DA790A42FCD0D7E70023012901D9B8
:1005D000180070470269022093681842FCD1043168
:1005E0004900521893889B07DB0FF1E70069083236
:1005F000520082189180302283681A42FCD17047E1
:10060000036900290BD1002A04D104321A71043283
:100610001A7106E004225A7104325A7101E001296C
:1006200000D07047002A04D101321A7101321A71C8
:10063000F7E701225A7101325A71F2E710B5134BF4
:10064000186802699379DBB2D90706D499070AD4EE
:1006500059070ED41B0712D410BD012393714368B0
:1006600000219847F8E701239371436801219847D7
:10067000F2E704239371036800219847ECE708230D
:100680009371036801219847E6E7C04630000020D7
:10069000C30707D5044A054B1A621900044A4B6880
:1006A0001342FCD17047C04606010100001800400B
:1006B000FD070000034B08229A71043A5A71033A6D
:1006C0001A71704700040040044BDA69F8214901AF
:1006D0000A40DA6101221A617047C04600100040EA
:1006E00082220C4B1A7518003821803A435C134261
:1006F000FCD108491022CB681A42FCD0054A137D70
:1007000080210B431375100048390E22435C1342BD
:10071000FCD17047000C004070478023DB059B78BC
:100720000322134098420CD08022D205FF239371FC
:10073000937803218B430840184390709379002BE2
:10074000FCD0704710B5024B9847024CA047FDE71C
:10075000150100006D02000070B500260C4D0D4C17
:10076000641BA410A64209D1002600F033F80A4DFC
:100770000A4C641BA410A64205D170BDB300EB580F
:1007800098470136EEE7B300EB5898470136F2E799
:10079000E0070000E0070000E0070000E4070000B9
:1007A0002E2E2F68616C2F7372632F68616C5F64EB
:1007B00061635F6173796E632E6300002E2E2F6874
:1007C000706C2F6461632F68706C5F6461632E636B
:1007D00000000000F8B5C046F8BC08BC9E46704753
:1007E000DD000000F8B5C046F8BC08BC9E46704766
:0407F000B500000050
:1007F40000006400C8002C019001F4015802BC02FE
:040804002003840346
:00000001FF
