S01200004D792050726F6A6563742E7372656355
S1130000382000202501000021010000210100000A
S113001000000000000000000000000000000000DC
S113002000000000000000000000000021010000AA
S11300300000000000000000210100002101000078
S11300402101000021010000210100002101000024
S11300502101000021010000210100002101000014
S11300602101000021010000210100002101000004
S113007021010000210100002101000021010000F4
S113008021010000210100002101000021010000E4
S113009021010000210100002101000021010000D4
S11300A021010000210100002101000021010000C4
S11300B00000000010B5064C2378002B07D1054B37
S11300C0002B02D0044800E000BF0123237010BDC0
S11300D0000000200000000028080000084B10B5B4
S11300E0002B03D00749084800E000BF0748036815
S11300F0002B00D110BD064B002BFBD09847F9E72D
S11301000000000004000020280800002808000067
S11301100000000010B5014B984710BD69020000B3
S1130120FEE7000010B51A4A1A4B9A4211D01A0081
S1130130194B9A420DD2194A03339B1A9B08013377
S11301409B000022134812498C58845004329A426E
S1130150FAD1134A134B9A420AD2D34311495B187A
S113016003218B4304339B18002102C29342FCD128
S11301700D4AFF210D4B8B4393600D4A53687F3921
S11301800B4353600B4B98470B4B9847FEE7C04615
S113019028080000000000200000002004000020C7
S11301A0000000203400002000ED00E0000000000A
S11301B0004000418D07000061060000F0B5C02634
S11301C0F60504237360134B134A9A62C022120685
S11301D09A624220195C0125A94301242143C9B232
S11301E019541138195C0F27B9432143C9B2195462
S11301F008217160094999629A6243215A5CAA43B1
S11302002243D2B25A541A5C34390A4001310A43A7
S11302101A54F0BD002800400400004008000040CB
S1130220054AD16980235B010B43D36140218023BC
S11302305B00024AD150704700040040001800409F
S113024010B5044B984704490448054B9847054B9F
S1130250984710BD21020000003000422000002019
S1130260C5020000BD01000010B5024B9847024BC7
S1130270984710BD2904000041020000F0B583B086
S113028000226B46DA8000210A480B4B9847094D3F
S11302900A4F0B4E6B469C1D0123220000212800AF
S11302A0B847238801331B051B0D23800A20B04760
S11302B0F0E7C046200000200903000045030000C9
S11302C0D903000070B505000C00002813D0080005
S11302D0431E9841C0B232220849094B9847210075
S11302E02800084B9847002804D100236B60AB60BA
S11302F0EB602B6170BD0020EDE7C046D407000021
S1130300F9030000F504000070B504000D00002896
S113031010D0002001238B424041C0B20123184079
S113032052220549054B984729002000044B984761
S1130330002070BD0020F1E7D4070000F90300009D
S113034021050000F0B5CE4600B582B007000D00CF
S113035091461E0000282DD00020012924D96A22AC
S113036019491A4B9847019729003800184B9847A8
S1130370002823D0EC003C194B466360A660002E95
S11303801FD0144F636819882A000198B84763681E
S113039002336360A368013BA360002BF2D1002009
S11303A002B004BC9146F0BD002A05D03000431EC3
S11303B09841D4E70020D2E70020D0E71D20404236
S11303C0EEE70020ECE7C046D4070000F903000084
S11303D0770500009905000010B5044B1C68044B18
S11303E0984701002000034B984710BD1C000020D3
S11303F00104000021040000002800D100BE704761
S113040010B50300C8204000584302300321034BB9
S1130410984703008000C018400010BD7506000016
S11304200139FDD87047000010B5094B5A685A606D
S11304300220084B9847084B9847084B9847084BAD
S11304409847084B9847FF20074B984710BDC04674
S11304500040004137060000E5050000FD050000EE
S1130460D105000035060000AD05000010B50400FC
S11304701D4BC01843425841C0B2DC221B491C4BDF
S11304809847A368DB0718D40322A3681A42FCD157
S113049023789B070BD523780222934323700132E0
S11304A0A3681A42FCD10222A3681A42FCD1012398
S11304B023700322A3681A42FCD10122A3681A42C2
S11304C0FCD100236370A370A3810222A3681A42A3
S11304D0FCD10023E3810222A3681A42FCD1012348
S11304E02376002010BDC04600D0FFBDF0070000F9
S11304F0F903000070B505000C00431E9841C0B21A
S113050052220449044B98472C602000034B98471F
S113051070BDC046F0070000F90300006D04000040
S113052010B5012900D910BD03681A78022082434E
S11305301A7001309A681042FCD14A009A189089C6
S113054002242043908102209A681042FCD11A7838
S1130550022002431A7001309A681042FCD100292B
S113056004D10131DA790A42FCD0DCE70221DA79DC
S11305700A42FCD0D7E70023012901D918007047AB
S11305800268022093681842FCD1043149005218D1
S113059093889B07DB0FF1E7006808325200115281
S11305A00C2283681A42FCD170470000C30707D5A8
S11305B0044A054B1A621900044A4B681342FCD1E1
S11305C07047C0460601010000180040FD07000006
S11305D0034B08229A71043A5A71033A1A7170470C
S11305E000040040044BDA69F82149010A40DA6149
S11305F001221A617047C0460010004082220C4B51
S11306001A7518003821803A435C1342FCD108491A
S11306101022CB681A42FCD0054A137D80210B437B
S11306201375100048390E22435C1342FCD1704705
S1130630000C004070478023DB059B7803221340A5
S113064098420CD08022D205FF2393719378032122
S11306508B430840184390709379002BFCD070476B
S113066010B5024B9847024CA047FDE71501000066
S11306707D020000002243088B4274D303098B429D
S11306805FD3030A8B4244D3030B8B4228D3030C5E
S11306908B420DD3FF22090212BA030C8B4202D300
S11306A01212090265D0030B8B4219D300E0090A28
S11306B0C30B8B4201D3CB03C01A5241830B8B4231
S11306C001D38B03C01A5241430B8B4201D34B031A
S11306D0C01A5241030B8B4201D30B03C01A52417F
S11306E0C30A8B4201D3CB02C01A5241830A8B4204
S11306F001D38B02C01A5241430A8B4201D34B02ED
S1130700C01A5241030A8B4201D30B02C01A524150
S1130710CDD2C3098B4201D3CB01C01A5241830904
S11307208B4201D38B01C01A524143098B4201D33E
S11307304B01C01A524103098B4201D30B01C01A69
S11307405241C3088B4201D3CB00C01A52418308E3
S11307508B4201D38B00C01A524143088B4201D310
S11307604B00C01A5241411A00D201465241104670
S11307707047FFE701B5002000F006F802BDC0464F
S11307800029F7D076E770477047C04670B5002659
S11307900C4D0D4C641BA410A64209D1002600F098
S11307A033F80A4D0A4C641BA410A64205D170BD4F
S11307B0B300EB5898470136EEE7B300EB5898477F
S11307C00136F2E7140800001408000014080000C1
S11307D0180800002E2E2F68616C2F7372632F6827
S11307E0616C5F6461635F73796E632E6300000004
S11307F02E2E2F68706C2F6461632F68706C5F6499
S113080061632E6300000000F8B5C046F8BC08BC64
S11308109E467047DD000000F8B5C046F8BC08BC31
S10B08209E467047B50000007C
S9030000FC
