:10000000A82100203D170000391700003917000013
:1000100000000000000000000000000000000000E0
:100020000000000000000000000000003917000080
:100030000000000000000000391700003917000020
:100040003917000039170000391700007502000049
:100050003917000039170000391700003917000060
:100060002D0800003D0800004D0800005D0800005C
:100070006D0800007D0800003917000039170000E6
:10008000391700008D1300009D130000AD13000010
:10009000BD130000CD130000391700003917000010
:1000A0003917000039170000391700003917000010
:1000B0000000000010B5064C2378002B07D1054B3B
:1000C000002B02D0044800E000BF0123237010BDC4
:1000D00070000020000000003C2A0000084B10B512
:1000E000002B03D00749084800E000BF0748036819
:1000F000002B00D110BD064B002BFBD09847F9E731
:1001000000000000740000203C2A00003C2A00008F
:100110000000000070B50020084B98470500084C0F
:10012000FA218900A047074B186007492800A0471B
:10013000064B18600522064B1A6070BDBD1000000A
:10014000AD1B00000000002040420F000400002012
:1001500010E000E030B5084B1C68084A00258021FB
:100160004902013807D3002CFBD054609560136816
:100170000B42FCD0F5E730BD0000002010E000E0AD
:100180000C4B1B68002B06D1EFF31083002B07D01C
:100190000022094B1A70074A136801331360704735
:1001A00072B6BFF35F8F0022044B1A700132024B0C
:1001B0001A70F0E78C00002090000020080000205A
:1001C000084B1A68013A1A601B68002B09D1064BCC
:1001D0001B78002B05D00122044B1A70BFF35F8FF0
:1001E00062B670478C0000209000002008000020BC
:1001F000F0B583B001AC012565700027A7702570AC
:1002000021002A20064EB0478022D200054B9A6179
:100210002770657021000220B04703B0F0BDC046D2
:1002200029040000802800401723002A01D018006C
:1002300070478B00064A9B58002B03D0834205D0A1
:100240001D23F4E7890088500023F0E70023EEE740
:100250002C0100201723002901D01800704700222C
:100260001F2800D8024A0123834013610023F4E7CA
:100270000024004070B50022104B1A700023104972
:100280001F25104E0D4C0AE00D4908E0237801337C
:10029000DBB223700F2B10D800211F2BF4D92800BC
:1002A00018400122824048691042EFD04A619B0009
:1002B0009B59002BEAD09847E8E770BD2801002041
:1002C000002400402C010020064A137802210B4331
:1002D0001370012053681942FCD153681842F9D1B8
:1002E0007047C04600240040064A137802218B4321
:1002F0001370012053681942FCD153681842F9D198
:100300007047C0460024004000B583B0174A5169C9
:1003100080239B000B43536101A900230B70032032
:10032000134B98470320134B9847134A1378012126
:100330000B4313700131012053681942FCD15368FB
:100340001842F9D10C4A137810218B4313700B4BD0
:1003500019004031002204C38B42FCD10822084B13
:100360001A60084B984703B000BDC0460004004027
:100370009911000029110000002400402C010020E8
:1003800000E100E0C9020000002303604360012295
:10039000027283720132C27243727047F0B583B049
:1003A00005000C001C4B984701A900234B70CB7033
:1003B00023790B70237A8B702078184B9847002193
:1003C0001F2D00D8164907222A409200E77AA37A07
:1003D000002B01D008231F43EB089B00CB18D869E2
:1003E0000F269640B04397403A000243DA61637AA1
:1003F000002B0BD18A690123AB40DB431B041B0C90
:1004000013408B61074B984703B0F0BD8A69012305
:10041000AB4013438B61F5E7E90200009512000041
:1004200000240040C902000000B583B001AB802267
:100430001A700A785A704A789A708A78DA701900B5
:10044000014B984703B000BD95120000F0B5DE46A1
:1004500057464E464546E0B587B0804604911600A3
:100460001F000022002300218B463F240120210091
:10047000009601975C4603944446059413E02024BB
:10048000641A0500E540A84614E0009C019D121B7B
:10049000AB415C464D462C43A346039C45462C434A
:1004A0000394013925D3202464420C19E7D40500B4
:1004B000A540A84604008C40A14692185B41140058
:1004C0001D00059E4F463E40B446049E47463E40B2
:1004D000B246664657463E4303D0060026433200E6
:1004E0002B00009C019D9D42DBD8CED19442D8D8F0
:1004F000CBE7039B5846190007B03CBC9046994691
:10050000A246AB46F0BD10B5490840230024814205
:1005100002D2180010BD1C00091A631C9BB288424D
:10052000F9D94023FF2CF4D814800023F1E7000010
:10053000F0B583B00F00160008AA117804004C43F0
:100540004022BC4202D9100003B0F0BD002B14D1F0
:10055000020008000021194CA04701003A000023C6
:100560000020174CA04700220123121A8B41120CC5
:100570001B041A4332800022E5E70022012BF9D147
:100580000A00002300210D4CA04702000B0000923E
:100590000193380000210A4CA047050080239B01ED
:1005A00040229842CFD8790FF800009A019BA047CB
:1005B000EA00821AD2B252032A43DBE7C51C0000CC
:1005C0004D04000010B582B004000E4B1B78002BC8
:1005D00007D0002905D10B4B5B78834210D01D203A
:1005E0000CE001A90C701120074B98471120074B14
:1005F0009847044B5C7001221A70002002B010BDB5
:100600000020FBE794000020991100002911000050
:10061000404B984232D00AD93F4B98424ED03F4B84
:1006200098425BD03E4B984238D0002070478423DC
:10063000DB0598420CD03B4B9842F6D1012917D0EC
:1006400000295DD0022915D0032915D00020EDE73F
:10065000012907D0002951D0022905D0032905D04E
:100660000020E3E73048E1E73048DFE73048DDE7E6
:100670003048DBE73048D9E73048D7E7012907D0D1
:1006800000293FD0022905D0032905D00020CDE75D
:100690002B48CBE72B48C9E72B48C7E7012907D0F0
:1006A000002931D0022905D0032905D00020BDE75B
:1006B0002648BBE72648B9E72648B7E7012907D00F
:1006C000002923D0022905D0032905D00020ADE759
:1006D0002148ABE72148A9E72148A7E7012907D02E
:1006E000002915D0022905D0032905D000209DE757
:1006F0001C489BE71C4899E71C4897E71C4895E76E
:10070000032093E71B4891E71B488FE71B488DE7C1
:100710001B488BE700080042001000420004004321
:10072000000C004200040042030005000300060024
:10073000030007000300010003001E0003001F0068
:100740000300090003000A0003000B00030011006E
:10075000030012000300130003000D0003000E004D
:1007600003000F0003001700030018000300190026
:1007700003000400030008000300100003000C0045
:100780000300160030B587B00B4B6A4632CB32C23D
:1007900032CB32C2009B83420BD001239A006946C0
:1007A0005258824206D00133062BF7D1002007B001
:1007B00030BD0023D8B2FAE744280000704700009B
:1007C000F0B50A4B1B78002B0CD1094F094E0A4D8E
:1007D0000024DE515A1914600433182BF9D1012278
:1007E000024B1A708000024BC150F0BD96000020F1
:1007F00098000020BD0700006C01002000B583B008
:1008000008236A4613700133537001339370013328
:10081000D3700133137101335371034B98476B4607
:10082000185603B000BDC0468507000010B5024B46
:100830001B680020984710BD9800002010B5024B9F
:100840005B680120984710BD9800002010B5024B4E
:100850009B680220984710BD9800002010B5024BFD
:10086000DB680320984710BD9800002010B5024BAC
:100870001B690420984710BD9800002010B5024B5A
:100880005B690520984710BD98000020F0B5DE4652
:1008900057464E464546E0B591B005000C0016009F
:1008A00029600800C44B9847020005280DD00700B6
:1008B0001237030021680520C90709D511B03CBCD7
:1008C00090469946A246AB46F0BD18270123F1E7B2
:1008D000216817308907F1D4052A49D0B749C8697A
:1008E00001229A4013000343CB610FA92D239846A0
:1008F000F35C0B70FFB23800B14B98473800B14B36
:1009000098474346F05C0021AF4B9847F37A6B71F0
:100910002423F35CAB712523F35CEB71F37E2B7224
:10092000337F6B722B6898461800A34B98470528B5
:1009300026D0123000220E2306A98C4663441A806A
:10094000328A02928023DB019A4200D1A7E019D9B2
:10095000C023DB01029A9A4200D19BE080231B0254
:100960009A4200D023E1032306930023079312E069
:100970009249086A043A9A40130003430B62B4E7B1
:100980001820D7E780239B019A4200D00FE1102363
:1009900006930F3B079333680593F3689B4673698F
:1009A0000393337E04932623F35C9A467368994637
:1009B000002B00D19BE080235B05994504D12723C0
:1009C000F35C002B00D180E0737E002B02D0B37E5D
:1009D000424693730E2306AA944663441B884246FC
:1009E0009381059B5A461343039A13434A46134384
:1009F000029F1F43049B1B021F4353465B071F4379
:100A00002723F35C002B01D104331F43737E9B0229
:100A1000327F52021343727F120213432422B25CCC
:100A2000520413432522B25C12041343B17AF27AC2
:100A3000114319433389FF2B7DD080225204174381
:100A400019432C23F35C002B03D1604B9B789B074D
:100A500001D580231F432A68D369002BFCD143466C
:100A600059602A68D369002BFCD143461F600EAB46
:100A700080221A7000225A70DA709A70336B0A93CF
:100A8000736B0B93B36B0C93F36B02930D93002773
:100A90000AAE5EE008230693073B07937BE73368C3
:100AA0000593F3689B4673690393337E049326236F
:100AB000F35C9A4673689946002B14D080235B053B
:100AC000994500D17BE7002020E0336A1F00C0B2C7
:100AD0003F4B984701000E2206AB9C46624438000B
:100AE0003C4B984712E008230693002307932723E3
:100AF000F35C002B0ED0069B0093079B0E2206A9E9
:100B00008C466244B16A306A334FB847002800D03F
:100B1000D4E659E7336A1F00C0B22D4B9847010055
:100B2000069B0093079B0E2206A884466244380069
:100B3000294FB847EAE7F37E002B82D08023DB04FD
:100B40001F437EE72000254B984707E00137042F1D
:100B50000DD0F9B2BB0098590028F3D0431CF5D052
:100B60000EA90870000CC0B21D4B9847EEE7002399
:100B7000EB602B616B61AB61EB612B62AB626B6213
:100B80000022EB85AB853033EA540133EA5401335C
:100B9000EA540133EA542868074B98470400114986
:100BA000114B9847A400114BE550002086E6102316
:100BB000069300230793EEE685070000000400403B
:100BC0009911000029110000C50500000020004116
:100BD000BD110000070500003105000011060000EE
:100BE00095120000810C0000C10700006C0100207C
:100BF000C2791C23002A01D118007047C28D92B21D
:100C0000173B002AF8D1026811850221137E0B429E
:100C1000FCD00023F0E782791C23002A01D11800C0
:100C20007047828D92B2173B002AF8D10268107E7D
:100C30004007F4D5538BDBB298061DD0980703D537
:100C4000022353831833EAE7580703D50423538359
:100C50001A33E4E7D80703D5012353831233DEE7C1
:100C6000D80603D5102353833233D8E79B0603D528
:100C7000202353832133D2E7138D0B800023CEE74B
:100C8000F8B58000624BC5582C68E369002BFCD195
:100C9000237EA67D1E403023EB5C3122AF5C1F40DB
:100CA000F30722D5EB8D9BB2002B1CD0AA6A1378D8
:100CB000DBB2511CA962697901290ED09BB2DB0518
:100CC000DB0D2385EB8D013B9BB2EB85002B0CD11B
:100CD000013323750133A37507E0517809020B43F3
:100CE0000232AA62EBE701232375B30706D502237C
:100CF000237500223133EA54FB071AD4730765D5F4
:100D0000AB8D9BB2002B5FD0638BDBB21A0714D480
:100D10003F221340002B34D09A0711D51A223223D8
:100D2000EA54303B63837B0750D528006B699847B2
:100D30004CE02800EB689847E0E737221340E9E7EA
:100D40005A0705D51E223223EA542E3B6383EAE775
:100D5000DA0705D513223223EA54313B6383E2E7F5
:100D6000DA0605D542223223EA54223B6383DAE7CE
:100D700020221A42D7D021323223EA54123B638315
:100D8000D1E7238DDB05DB0DDAB2696A0A706A6A86
:100D9000511C69626979012910D0AB8D013B9BB26E
:100DA000AB85002B12D10433237500222E33EA5475
:100DB000BB070BD528002B69984707E01B0A537027
:100DC0006B6A01336B62E8E704232375F30604D5ED
:100DD000102323752376FB060ED4B30604D52023F7
:100DE000237523763B070BD4330704D508232375DB
:100DF0002376BB0608D4F8BD2800EB699847ECE7DA
:100E00002800AB699847EFE72B6A28009847F2E77C
:100E10006C01002010B5082803D880001D4B1B581A
:100E20009F46002034E01C4B186931E01B4B187DB5
:100E30000007800F431C1A48584329E0164B586995
:100E400026E0154B1B6800209B0721D51349802203
:100E50005200CB681342FCD00F4B1A682423134076
:100E6000042B01D00F4813E000200F4B98470A4B8A
:100E70009B681B041B0C58430AE02823074AD35CD9
:100E800000209B0704D5044BD86801E080200002B5
:100E900010BDC0465C280000B0000020000C0040DF
:100EA00000093D00006CDC02BD11000010B584B0EB
:100EB00080225200324B9A60FD3A324B9A60324A9D
:100EC00053681E218B4353608023DB059B78022BE4
:100ED0000FD08023DB059B785BB2002B09DB8023DE
:100EE000DB0501229A7101329A701A009379002B66
:100EF000FCD0234B197D802252420A431A751A7D79
:100F000040218A431A75214B9847214C0123A37134
:100F10006371237101A94B6000234B7006220A7094
:100F20000B724B7200201B4B984700201A4B9847BE
:100F300000201A4B98472179C9B2194B9847194B91
:100F4000984202D90822A2716271174B984214D8B4
:100F50008023DB059B78002B0FD08023DB059B785B
:100F60005BB2002B09DB8023DB0501229A71002292
:100F70009A701A009379002BFCD004B010BDC046C3
:100F8000000C00400014004000400041AD0F000084
:100F900000040040D10F00007D100000BD100000D3
:100FA000AD1B0000808D5B00001BB700064A536933
:100FB00040210B4353610122044B1A7019000B7836
:100FC0001342FCD17047C0460004004000180040A6
:100FD00070B504000D784B78002B02D08023DB0025
:100FE0001D434B7A002B02D080231B011D43486810
:100FF00001280FD9431E184231D102282DD90223CE
:10100000002201325B009842FBD880235B011D4324
:10101000120415430B7A002B02D080239B011D4341
:101020000426A6401149124A4B6813401E42FBD1C8
:10103000104B9847A4000D4B9C466444226A8023C1
:101040005B001A402A4322626146094A4B681340FA
:101050001E42FBD1084B984770BD0022D5E7000423
:1010600080239B0018430543D4E7C0460018004086
:10107000FC07000081010000C101000010B5040060
:101080000422824009480A4943680B401A42FBD1B6
:10109000084B9847A400054B9C466444226A802371
:1010A0005B0013432362044B984710BD00180040B7
:1010B000FC07000081010000C1010000F8B5040038
:1010C000042282401248134943680B401A42FBD164
:1010D000114B98470E4F0834A400E0590007000F49
:1010E0000E4B98470600E559ED04ED0FE459240C2A
:1010F0000B4B9847002D07D1012C07D92100300058
:10110000084B9847060001E00134E6403000F8BD86
:1011100000180040FC07000081010000150E0000CF
:10112000C1010000AD1B000010B50400094B984739
:10113000A000094B9C4660448022835840210B4309
:1011400083504031403A43581A42FCD0034B9847F1
:1011500010BDC0468101000000180040C101000020
:1011600010B50400094B9847A000094B9C46604409
:101170008022835840218B4383504031403A43586A
:101180001A42FCD1034B984710BDC04681010000B4
:1011900000180040C101000070B504000D00054BAF
:1011A00098472A780F2313402034A400024AA35002
:1011B00070BDC046611100000018004010B5040069
:1011C000064B98472034A400054BE4582407240F0D
:1011D000044B98472000044B984710BD8101000044
:1011E00000180040C1010000BD10000030B5D378E8
:1011F000002B35D11378802B29D01B068024640264
:10120000234354780225AC4306D19478002C20D196
:101210008024A402234341605478013C012C1CD952
:101220000D042D0CA024E4052C431C4384620D0CFA
:10123000D02424062C431C438462D478002C22D171
:101240005B031CD59378012B1ED0416117E000236E
:10125000D7E7C024E4022343DDE70D4C2340DFE75A
:1012600041600C04240CA023DB05234383620C0C97
:10127000D0231B0623438362D378002B03D15378FA
:10128000013B012B02D930BD8161F8E78160FAE7AB
:10129000FFFFFBFF10B50A00C1090023002904D19C
:1012A0004309DB0105498C4663441F24204001218A
:1012B00081401800024B984710BDC04600280040EE
:1012C000ED1100007047000010B5054B9847054B25
:1012D0009847054B9847054B9847054B984710BDD5
:1012E000AD0E0000F1010000C5120000090300006E
:1012F000C5120000931C9B001950022A09D0032A32
:101300000CD0012393401A00037E13430376002080
:101310007047037E102213430376F8E7037E2022F2
:1013200013430376F3E7000070B58000164BC458F2
:1013300023689D7A227E637E13401D40EB0706D40E
:10134000AB070BD4EB0610D4AB0615D470BD200050
:10135000A3689847012322689372F1E72000E368AD
:101360009847022322689372ECE72000236998478C
:10137000102322689372E7E7200063699847236887
:1013800020229A72E2E7C0468401002010B50020B6
:10139000014B984710BDC0462913000010B501202D
:1013A000014B984710BDC0462913000010B502201C
:1013B000014B984710BDC0462913000010B503200B
:1013C000014B984710BDC0462913000010B50420FA
:1013D000014B984710BDC0462913000030B587B0B7
:1013E00001A90C4B0A0032CB32C212CB12C2019BB4
:1013F00098420BD0012301A99A005258824206D08C
:101400000133052BF8D1002007B030BD0023D8B23E
:10141000FAE7C046A8280000F0B5C64600B58EB071
:1014200004000D0016000800AE4B984780460CAB38
:101430001B221A705A7001329A70DA7001321A71D6
:1014400002A9A94B14330A0083CB83C283CB83C286
:1014500083CB83C21B6813600023A360E360236116
:1014600063612376637643469A00A04BD45025608F
:101470003423F35CA376F378082B08D023712B6810
:101480000520DB0708D50EB004BC9046F0BD172040
:101490004246D207F7D4F1E7EB7A17309B07F2D434
:1014A0002B689B07EFD4337C002B12D1337F002BAA
:1014B0001BD143465A0002A9531C9B00585843466F
:1014C000DB005B58D9B2042923D88B008849CB585C
:1014D0009F4601A901238B700022CA70327E0A70D8
:1014E0004B70307D834B9847E0E701A901238B7057
:1014F0000022CA702432B21812780A704B701F335F
:10150000F31818787B4B9847D3E77B494B6918430E
:101510004861F378082B00D186E033786A4613706F
:101520000CAB42469F5C69463800744B98473800C4
:10153000734B9847F378F2791343B2881343727A66
:10154000002A02D0802252021343B27A002A02D02B
:10155000802292021343F27A002A02D080225203A0
:101560001343327B002A02D0802292031343717806
:101570008901B278D2011143194322681369002B03
:10158000FCD1296022681369002BFCD1B3792B733D
:10159000717B4B1E99418900B37B002B01D0012345
:1015A000194322681369002BFCD1FF332B710029EA
:1015B00004D022681369002BFCD16971337A6B73F4
:1015C00022681369002BFCD12379042B59D0082BF6
:1015D00074D01720002B00D055E71369002BFCD1E5
:1015E000338DAB8222681369002BFCD1738DAB83E2
:1015F00022681369002BFCD1B38DEB83002042E7F6
:101600003D498B691843886183E73B49CB6918439F
:10161000C8617EE738490B6A1843086279E7364BA0
:10162000596A0843586274E743460133042B00DDCE
:1016300073E702ABD11C8900C95802329200D3581B
:10164000DAB2042A00D968E793002E4AD3589F469D
:10165000294A5369194351615FE7274A936919433E
:1016600091615AE7244AD3691943D16155E7224A67
:10167000136A1943116250E71F4B5A6A11435962AA
:101680004BE71369002BFCD12833F35C2B752268E0
:101690001369002BFCD12933F35CEB7622681369C4
:1016A000002BFCD12A33F35C2B7722681369002BC3
:1016B000FCD12B33F35C6B770020E4E61369002B3D
:1016C000FCD1B36A6B6122681369002BFCD1F36A09
:1016D000EB6122681369002BFCD1336B2B62002075
:1016E000D1E6C046DD130000A828000084010020D8
:1016F00080280000951200000004004099110000AD
:10170000291100009428000002681369002BFCD105
:101710000379042B05D0082B0BD01720002B04D005
:101720007047C9B211750020FAE789B29182002092
:10173000F6E751610020F3E7FEE7000010B51A4A12
:101740001A4B9A4211D01A00194B9A420DD2194ADB
:1017500003339B1A9B0801339B0000221348124954
:101760008C58845004329A42FAD1134A134B9A424D
:101770000AD2D34311495B1803218B4304339B18CE
:10178000002102C29342FCD10D4AFF210D4B8B4335
:1017900093600D4A53687F390B4353600B4B984756
:1017A0000B4B9847FEE7C0463C2A00000000002093
:1017B000700000200400002070000020A80100201C
:1017C00000ED00E00000000000400041191D000095
:1017D00051190000F0B5C64600B50C00904600282F
:1017E0000FD1002A11DD8F18094E0A4D30682100F3
:1017F0002B6898470134BC42F8D1404604BC90465F
:10180000F0BD01235B429846F7E78046F5E7C04606
:10181000A001002098010020F0B5C64600B50E00DA
:1018200015000138022810D8002A11D000240C4BD2
:1018300098460C4F43461868315D3B68984700282E
:1018400008DB0134A542F5D106E00124644203E03F
:10185000140001E001246442200004BC9046F0BD65
:10186000A00100209C0100200300064A1268002A03
:1018700004D0044A1068C318136070470249014A33
:101880001160F6E7C8000020A82100200120404296
:10189000704780239B014B600020704701207047F8
:1018A00000207047064B1B6A5B0704D48022D200DD
:1018B000044B5A6170478022D200024B9A61F9E7CB
:1018C000002800408028004070B582B005000E005E
:1018D00000226B46DA80064C6B46991D2800A04713
:1018E0000028F9D16B4606331B88337002B070BDF7
:1018F000170C000070B505008CB2034E21002800C3
:10190000B0470028FAD170BDF10B000010B50400FB
:10191000094B1A68501C1860C8218900074B98476A
:10192000002904D006492000064B984710BD064800
:10193000064B9847F6E7C04600010020B91C00009E
:10194000EFD800000917000088290000311E0000B0
:10195000F0B593B0724B984701AA8023DB05019341
:1019600000235360FF21118100219372D37201245F
:1019700024201454013014540130135401301354F2
:101980009362053013540130135453611382D3769C
:1019900011761177517613239376517780235B0369
:1019A000D360604B1363604B536301235B429363CB
:1019B000D36396231B0213625C4D5D4B1D605D4932
:1019C0005D4B19605D495E4B19605E4928005E4BB6
:1019D00098475E4F3B68986800215D4EB0473B6872
:1019E00058680021B0472E6830005A4B98471F2393
:1019F00018408440584B1C602B68DA69002AFCD1DF
:101A0000336802252B43336001AC2000534B9847C9
:101A10000195002565600323E372023BA372210058
:101A200002204F4B9847002202214E484E4B9847C8
:101A3000002102204D4B984700232570E5700022BD
:101A4000A580A271E3716370A37023726372A372A5
:101A5000E3722373A373637323746561A5612377B2
:101A6000256265626585A5853423E254404B238554
:101A7000404D220040492800404B98472B681A6986
:101A8000002AFCD11A6802210A431A60394D00224B
:101A90003B4928003B4B984728683B4B98473B4BBA
:101AA0001A5C1F231340012422009A402A4B1A601B
:101AB0006B7E012213436B762B685C72344B984724
:101AC0003448354B9847354B1C70BFF35F8F62B677
:101AD00011A94C7000238B700C702A20304B984752
:101AE000304C8025ED00A561E561FA27BF00380084
:101AF0002D4EB047E5613800B047E5613800B0478A
:101B00001424284F2E00284DFE616420A847013C74
:101B1000002CF9D18022D200224B9A61FEE7C04608
:101B2000C91200000200160002001700CC000020BD
:101B3000A0010020F51800009C010020C918000039
:101B400098010020000C00428D0800000C000020CD
:101B5000451E0000FD07000000E100E089030000D1
:101B60009D030000A5180000290200005502000096
:101B7000EFD8FFFF04010020002C004219140000E0
:101B80000D190000F5120000DD130000B02900005F
:101B900015010000E4280000311E000008000020AC
:101BA000290400008028004055010000002243085D
:101BB0008B4274D303098B425FD3030A8B4244D315
:101BC000030B8B4228D3030C8B420DD3FF22090257
:101BD00012BA030C8B4202D31212090265D0030B16
:101BE0008B4219D300E0090AC30B8B4201D3CB030C
:101BF000C01A5241830B8B4201D38B03C01A52414E
:101C0000430B8B4201D34B03C01A5241030B8B424F
:101C100001D30B03C01A5241C30A8B4201D3CB023A
:101C2000C01A5241830A8B4201D38B02C01A52411F
:101C3000430A8B4201D34B02C01A5241030A8B4222
:101C400001D30B02C01A5241CDD2C3098B4201D33A
:101C5000CB01C01A524183098B4201D38B01C01AB8
:101C6000524143098B4201D34B01C01A524103092F
:101C70008B4201D30B01C01A5241C3088B4201D3DE
:101C8000CB00C01A524183088B4201D38B00C01A8B
:101C9000524143088B4201D34B00C01A5241411AB2
:101CA00000D20146524110467047FFE701B50020BF
:101CB00000F006F802BDC0460029F7D076E770476D
:101CC0007047C046F0B5CE46474615042D0C2E0091
:101CD00080B50704140C3F0C9946030C7E435D430A
:101CE000674363437F19340CE4199C46A54203D92A
:101CF00080235B029846C4444B4651434343360419
:101D0000360C250C24046544A419591849192000DF
:101D10000CBC90469946F0BD70B500260C4D0D4C9C
:101D2000641BA410A64209D1002600F077FE0A4DDC
:101D30000A4C641BA410A64205D170BDB300EB5839
:101D400098470136EEE7B300EB5898470136F2E7C3
:101D5000282A0000282A0000282A00002C2A000037
:101D600003008218934200D1704719700133F9E7DC
:101D700070B505000E00002804D08369002B01D146
:101D800000F0DAFAAB69AC68002B02D1280000F051
:101D9000D3FA244B9C420FD16C68A3891B0702D550
:101DA0002369002B20D12100280000F057F90028DA
:101DB0001AD00120404270BD1B4B9C4201D1AC683F
:101DC000EBE71A4B9C42E8D1EC68E6E7013B0136B1
:101DD000A360002B04DAA269934216DB0A2914D00F
:101DE00023685A1C226019703178A3680029EDD14C
:101DF000013BA360002B0FDA22000A31280000F01B
:101E0000D7F8431CD5D00A20D5E72200280000F0DF
:101E1000CFF8431CE8D1CCE70A2023685A1C226083
:101E20001870C8E7DC290000FC290000BC2900006C
:101E300010B5034B01001868FFF79AFF10BDC046AC
:101E40000C0000204A424A41802310B55200DB00BA
:101E500000F002F810BD0000F0B51D004F4B85B03A
:101E60001E6804000F000092002E05D0B369002BFD
:101E700002D1300000F060FA494B9C4250D17468A6
:101E8000009B022B05D0012B00D984E0002D00DA45
:101E900081E02100300000F0E1F9616B002908D0F9
:101EA00023004433994202D0300000F051FB00235C
:101EB00063630023A3616360A3891B0603D52169C3
:101EC000300000F045FBA389364A1340A381009BF4
:101ED000022B5AD003AB02AA2100300000F0C2FA54
:101EE000A3891843A081002D24D1029D280000F071
:101EF00025FB0195071E42D1029B0193AB4239D1CC
:101F0000012040420223A2891343A3810023A3603E
:101F100023004733236023610123636105B0F0BDD3
:101F2000214B9C4201D1B468AAE7204B9C42A7D127
:101F3000F468A5E7002FD9D0B369002B02D1300097
:101F400000F0FAF9009B012B03D1A389009A1A43F0
:101F5000A2810820A389276027616561184018D0F5
:101F6000012018400023984211D06D42A360A56162
:101F70001800D3E7019800F0E1FA071EC0D08023D3
:101F8000A289019D1343A381D6E70020BAE7A5608B
:101F9000C4E7A060C2E701204042BFE70C00002078
:101FA000DC2900005CF3FFFFFC290000BC290000D5
:101FB000F8B505000E001400002804D08369002B3A
:101FC00001D100F0B9F9224B9C422DD16C68A36974
:101FD000A360A3891B0731D52369002B2ED023686A
:101FE0002269F7B2981A6369F6B2984205DB2100BC
:101FF000280000F033F9002826D1A3680130013B06
:10200000A36023685A1C22601F706369984204D041
:10201000A389DB071AD50A2E18D12100280000F069
:102020001DF9002812D00FE00A4B9C4201D1AC6888
:10203000CDE7094B9C42CAD1EC68C8E721002800D3
:1020400000F00CF80028CAD0012676423000F8BD16
:10205000DC290000FC290000BC290000364B70B5CB
:102060001D6806000C00002D05D0AB69002B02D1C5
:10207000280000F061F9314B9C420FD16C680C23B1
:10208000E25E93B219072DD4D90611D40923012099
:10209000336037331343A381404270BD284B9C42C9
:1020A00001D1AC68EBE7274B9C42E8D1EC68E6E74E
:1020B0005B0713D5616B002908D023004433994294
:1020C00002D0300000F044FA002363632422A38985
:1020D0009343A38100236360236923600823A289BB
:1020E0001343A3812369002B0BD1A0218022A38954
:1020F000890092000B40934203D02100300000F091
:10210000D9F90123A289134011D00023A360636988
:102110005B42A361002023698342BED10C23E25EAF
:102120001306BAD540231343A3810138B5E79207BC
:1021300000D46369A360EDE70C000020DC290000F7
:10214000FC290000BC290000F7B58A8905000C00B5
:10215000130760D44B68002B04DC0B6C002B01DCF4
:102160000020FEBDE76A002FFAD000232E682B6006
:1021700080235B011A4034D0606DA3895B0706D5CC
:102180006368C01A636B002B01D0236CC01A020075
:10219000216A00232800E76AB847A189431C06D1B9
:1021A0002B681D2B31D82C4ADA40D3072DD50023BC
:1021B000636023692360CB0405D5431C02D12B68DF
:1021C000002B00D16065616B2E600029C8D0230010
:1021D0004433994202D0280000F0BAF9002060632D
:1021E000BFE70123216A2800B847431CC5D12B68EB
:1021F000002BC2D01D2B01D0162B01D12E60AFE7D2
:102200004023A2891343A381ABE740230B43012062
:10221000A3814042A5E70F69002FA1D00B680F6092
:10222000DB1B01930023920700D14B69A360019B44
:10223000002B00DC94E7019B3A00216A2800A66A83
:10224000B047002803DC4023A2891343DFE7019B4A
:102250003F181B1A0193EAE7010040200B6970B593
:1022600005000C00002B01D1002070BD002804D017
:102270008369002B01D100F05FF80B4B9C4209D120
:102280006C680C22A35E002BEED021002800FFF723
:102290005BFFEAE7054B9C4201D1AC68F1E7044BD8
:1022A0009C42EED1EC68ECE7DC290000FC29000040
:1022B000BC29000010B5024900F0B2F810BDC046BC
:1022C0005D220000002310B50400036043608360BA
:1022D00081814366C28103614361836119000822E1
:1022E0005C30FFF73DFD054B24626362044BA36243
:1022F000044BE362044B236310BDC046C5260000B7
:10230000ED260000252700005127000070B5682544
:102310004A1E55430E002900743100F063F9041E73
:1023200008D000212A00016046600C30A0606832AD
:10233000FFF716FD200070BD836913B50400002B64
:1023400028D18364C3640365134B144A1B688262FB
:102350000193984201D101238361200000F020F80D
:102360006060200000F01CF8A060200000F018F869
:102370000022E06004216068FFF7A4FF0122092128
:10238000A068FFF79FFF02221221E068FFF79AFF83
:102390000123A36113BDC046B8290000B522000087
:1023A000F8B51E4B07001E68B369002B02D1300040
:1023B000FFF7C2FF4836B4687368013B04D5336841
:1023C000002B07D03668F6E70C22A55E002D0DD055
:1023D0006834F2E704213800FFF798FF30600028E6
:1023E000F0D10C2304003B602000F8BD0123200045
:1023F0005B42E3810233A38165662560A560656069
:1024000025616561A561082229005C30FFF7A8FC01
:102410006563A563A564E564E6E7C046B8290000E6
:10242000F7B504000700002601914834002C01D1C3
:102430003000FEBD6368A5680093009B013B0093DC
:1024400001D52468F2E7AB89012B08D90E22AB5ED7
:10245000013304D029003800019B984706436835B2
:10246000EBE7000070B50E001D000E23C95E90B0B2
:102470001400002907DA00232B60B3891B0611D44E
:102480008023DB000FE001AA00F08EF90028F2DBC8
:10249000F022029B12021340054A9B185A425341F4
:1024A0002B60EDE740230020236010B070BDC046D4
:1024B00000E0FFFFF7B502268B8905000C003342D0
:1024C00006D0230047332360236101236361F7BDF6
:1024D00001AB6A46FFF7C6FF00990700280000F02D
:1024E00081F8002808D10C22A35E9A05EFD40322BC
:1024F00093431E43A681E4E70F4BAB628023A2897E
:1025000020601343A381009B20616361019B002B2A
:102510000DD00E23E15E280000F058F9002806D007
:102520000322A38993431A0001231343A381A089A3
:102530003843A081CBE7C046B522000010B5034B5D
:102540000100186800F04EF810BDC0460C000020D5
:1025500070B50500002910D00C1F2368002B00DA8D
:10256000E418280000F058F91D4A1368002B05D123
:1025700063601460280000F050F970BDA34209D9CF
:10258000216860188342F3D118685B6841182160A4
:10259000EEE713005A68002A01D0A242F9D919685F
:1025A0005818A0420BD120680918581819608242A7
:1025B000E0D110685268411819605A60DAE7A04209
:1025C00002D90C232B60D5E721686018824203D121
:1025D000106852684118216062605C60CAE7C046BA
:1025E00020010020032370B5CD1C9D430835060053
:1025F0000C2D1ED20C25A9421DD8300000F00CF97C
:10260000254A14682100002919D1244C2368002B85
:1026100003D1300000F044F820602900300000F0C1
:102620003FF8431C2CD10C233000336000F0F5F848
:1026300003E0002DDFDA0C233360002070BD0B684F
:102640005B1B1AD40B2B03D90B60CC18256003E05D
:102650008C420ED163681360300000F0DEF8200079
:1026600007220B30231D9043C31AE7D05A42E25091
:10267000E4E74B6863600C00EEE70C004968C2E7D2
:102680000323C41C9C43A042E0D0211A300000F078
:1026900007F8431CDAD1C6E72001002024010020FE
:1026A000002370B5064C050008002360FFF7DCF836
:1026B000431C03D12368002B00D02B6070BDC046A3
:1026C000A401002070B50C000E25495F00F0A6F8AB
:1026D000002803DB636D1B18636570BDA389024A84
:1026E0001340A381F9E7C046FFEFFFFFF8B51F00D5
:1026F0008B8905000C001600DB0505D50E23C95E8D
:102700000022022300F074F8A389054A2800134030
:10271000A38132000E23E15E3B0000F01FF8F8BDFC
:10272000FFEFFFFF70B50C000E25495F00F060F869
:10273000A389421C03D1054A1340A38170BD8022A6
:1027400052011343A3816065F8E7C046FFEFFFFF26
:1027500010B50E23C95E00F015F810BD70B5050068
:10276000080011000022064C22601A00FFF754F8FE
:10277000431C03D12368002B00D02B6070BDC046E2
:10278000A4010020002370B5064C0500080023605A
:10279000FFF77CF8431C03D12368002B00D02B608B
:1027A00070BDC046A4010020002370B5064C050092
:1027B000080011002360FFF76CF8431C03D1236865
:1027C000002B00D02B6070BDA4010020002370B549
:1027D000064C050008002360FFF760F8431C03D196
:1027E0002368002B00D02B6070BDC046A4010020E0
:1027F00070B50500080011000022064C22601A0086
:10280000FFF74EF8431C03D12368002B00D02B6048
:1028100070BDC046A40100207047704770B5050028
:10282000080011000022064C22601A00FEF7D2FFB9
:10283000431C03D12368002B00D02B6070BDC04621
:10284000A4010020000000420004004200080042F1
:10285000000C00420010004200040043260E00005D
:10286000220E0000220E00008C0E00008C0E0000D4
:102870003C0E00002C0E0000420E00007A0E0000FC
:102880000A150000001600000A16000014160000C9
:102890001E160000501600005A16000064160000B4
:1028A0006E1600007816000000200042002400424E
:1028B00000280042002C00420008004302000000F3
:1028C0000001000002000000000200000200000001
:1028D00000040000020000000008000003000000E7
:1028E000040000002D2D2047657474696E67205325
:1028F000746172746564204578616D706C65202D1B
:102900002D0D0A2D2D2053414D4C32315F58504C26
:1029100041494E45445F50524F202D2D0D0A2D2D1B
:1029200020436F6D70696C65643A204665622032A1
:102930003220323032302031383A34363A31372092
:102940002D2D0D0A2D2D205072657373696E672031
:10295000616E642072656C65617365206275747464
:102960006F6E205357302073686F756C64206D61F3
:102970006B65204C454430206F6E20616E64206F83
:102980006666202D2D0D0000546865206F757470EB
:102990007574206973207472696767657265642055
:1029A000627920544320636F756E7465720D000068
:1029B0001112131415000000100000200000000088
:1029C0000000000000000000000000000000000007
:1029D00000000000000000000000000000000000F7
:1029E00000000000000000000000000000000000E7
:1029F00000000000000000000000000000000000D7
:102A000000000000000000000000000000000000C6
:102A1000000000000000000000000000F8B5C04603
:102A2000F8BC08BC9E467047DD000000F8B5C04603
:0C2A3000F8BC08BC9E467047B5000000D2
:102A3C00401F0000080000000100000010000020F2
:102A4C0000000000DC290000FC290000BC2900006B
:102A5C00000000000000000000000000000000006A
:102A6C00000000000000000000000000000000005A
:102A7C00000000000000000000000000000000004A
:102A8C00000000000000000000000000000000003A
:102A9C00000000000000000000000000000000002A
:040000030000173DA5
:00000001FF
