:1000000040200020310600002D0600002D060000D3
:1000100000000000000000000000000000000000E0
:100020000000000000000000000000002D0600009D
:1000300000000000000000002D060000C9060000BE
:100040002D0600002D0600002D0600002D060000E4
:100050002D0600002D0600002D0600002D060000D4
:100060002D0600002D0600002D0600002D060000C4
:100070002D0600002D0600002D0600002D060000B4
:100080002D0600002D0600002D0600002D060000A4
:100090002D0600002D0600002D0600002D06000094
:1000A0002D0600002D0600002D0600002D06000084
:1000B0000000000010B5064C2378002B07D1054B3B
:1000C000002B02D0044800E000BF0123237010BDC4
:1000D0000400002000000000E8080000084B10B5F4
:1000E000002B03D00749084800E000BF0748036819
:1000F000002B00D110BD064B002BFBD09847F9E731
:100100000000000008000020E8080000E8080000E7
:10011000000000000C4B1B68002B06D1EFF310838E
:10012000002B07D00022094B1A70074A13680133CD
:100130001360704772B6BFF35F8F0022044B1A70D2
:100140000132024B1A70F0E720000020240000204A
:1001500000000020084B1A68013A1A601B68002B47
:1001600009D1064B1B78002B05D00122044B1A70D5
:10017000BFF35F8F62B6704720000020240000208C
:1001800000000020F0B583B001AC012565700027A8
:10019000A770257021002A20064EB0478022D20089
:1001A000054B9A612770657021000220B04703B0AB
:1001B000F0BDC046BD0100008028004000B583B0FE
:1001C00001AB80221A700A785A704A789A708A783D
:1001D000DA701900014B984703B000BDCD0500004F
:1001E00010B5082803D880001D4B1B589F460020DF
:1001F00034E01C4B186931E01B4B187D0007800F61
:10020000431C1A48584329E0164B586926E0154B01
:100210001B6800209B0721D5134980225200CB6820
:100220001342FCD00F4B1A6824231340042B01D037
:100230000F4813E000200F4B98470A4B9B681B04A4
:100240001B0C58430AE02823074AD35C00209B0775
:1002500004D5044BD86801E08020000210BDC046E0
:10026000A408000028000020000C004000093D0008
:10027000006CDC02F504000010B584B0802252004E
:10028000324B9A60FD3A324B9A60324A53681E21D3
:100290008B4353608023DB059B78022B0FD0802398
:1002A000DB059B785BB2002B09DB8023DB05012299
:1002B0009A7101329A701A009379002BFCD0234B6B
:1002C000197D802252420A431A751A7D40218A43C1
:1002D0001A75214B9847214C0123A3716371237137
:1002E00001A94B6000234B7006220A700B724B72FF
:1002F00000201B4B984700201A4B984700201A4BB0
:1003000098472179C9B2194B9847194B984202D99D
:100310000822A2716271174B984214D88023DB0522
:100320009B78002B0FD08023DB059B785BB2002BE2
:1003300009DB8023DB0501229A7100229A701A00E2
:100340009379002BFCD004B010BDC046000C0040D7
:100350000014004000400041790300000004004008
:100360009D030000490400008904000045070000C7
:10037000808D5B00001BB700064A536940210B4388
:1003800053610122044B1A7019000B781342FCD1FF
:100390007047C046000400400018004070B50400DB
:1003A0000D784B78002B02D08023DB001D434B7A65
:1003B000002B02D080231B011D43486801280FD960
:1003C000431E184231D102282DD9022300220132C6
:1003D0005B009842FBD880235B011D431204154348
:1003E0000B7A002B02D080239B011D430426A640DC
:1003F0001149124A4B6813401E42FBD1104B9847DB
:10040000A4000D4B9C466444226A80235B001A4082
:100410002A4322626146094A4B6813401E42FBD1BF
:10042000084B984770BD0022D5E7000480239B004D
:1004300018430543D4E7C04600180040FC070000FD
:10044000150100005501000010B50400042282408F
:1004500009480A4943680B401A42FBD1084B9847A8
:10046000A400054B9C466444226A80235B0013432E
:100470002362044B984710BD00180040FC070000A1
:100480001501000055010000F8B504000422824067
:100490001248134943680B401A42FBD1114B98474D
:1004A0000E4F0834A400E0590007000F0E4B984788
:1004B0000600E559ED04ED0FE459240C0B4B984769
:1004C000002D07D1012C07D921003000084B984797
:1004D000060001E00134E6403000F8BD001800409D
:1004E000FC07000015010000E101000055010000BB
:1004F0004507000010B50400064B98472034A400BF
:10050000054BE4582407240F044B98472000044B64
:10051000984710BD1501000000180040550100006B
:100520008904000030B5D378002B35D11378802BA7
:1005300029D01B0680246402234354780225AC434F
:1005400006D19478002C20D18024A402234341605A
:100550005478013C012C1CD90D042D0CA024E40579
:100560002C431C4384620D0CD02424062C431C43D2
:100570008462D478002C22D15B031CD59378012BA4
:100580001ED0416117E00023D7E7C024E4022343D3
:10059000DDE70D4C2340DFE741600C04240CA02371
:1005A000DB05234383620C0CD0231B0623438362A9
:1005B000D378002B03D15378013B012B02D930BDF6
:1005C0008161F8E78160FAE7FFFFFBFF10B50A00E1
:1005D000C1090023002904D14309DB0105498C46E8
:1005E00063441F242040012181401800024B98479A
:1005F00010BDC046002800402505000070470000DF
:1006000010B5054B9847054B9847054B9847054B48
:100610009847054B984710BD7902000085010000FE
:10062000FD050000FD050000FD050000FEE70000DF
:1006300010B51A4A1A4B9A4211D01A00194B9A4215
:100640000DD2194A03339B1A9B0801339B000022E9
:10065000134812498C58845004329A42FAD1134AF2
:10066000134B9A420AD2D34311495B1803218B439F
:1006700004339B18002102C29342FCD10D4AFF2192
:100680000D4B8B4393600D4A53687F390B43536086
:100690000B4B98470B4B9847FEE7C046E808000015
:1006A00000000020040000200400002004000020BE
:1006B0004000002000ED00E000000000004000418C
:1006C0005D080000D90600008022D200014BDA61EB
:1006D0007047C0468028004000B583B0124B984751
:1006E0000020124B9847C308013B114A93420DD892
:1006F000104A53601048036A1B021B0AC0210906F6
:100700000B430362002393600733136001A90123A5
:100710004B7000228A700B702A20084B9847802269
:10072000D200074B9A61FEE7010600008904000031
:10073000FFFFFF0010E000E000ED00E0BD01000061
:1007400080280040002243088B4274D303098B4267
:100750005FD3030A8B4244D3030B8B4228D3030C91
:100760008B420DD3FF22090212BA030C8B4202D333
:100770001212090265D0030B8B4219D300E0090A5B
:10078000C30B8B4201D3CB03C01A5241830B8B4264
:1007900001D38B03C01A5241430B8B4201D34B034D
:1007A000C01A5241030B8B4201D30B03C01A5241B2
:1007B000C30A8B4201D3CB02C01A5241830A8B4237
:1007C00001D38B02C01A5241430A8B4201D34B0220
:1007D000C01A5241030A8B4201D30B02C01A524184
:1007E000CDD2C3098B4201D3CB01C01A5241830938
:1007F0008B4201D38B01C01A524143098B4201D372
:100800004B01C01A524103098B4201D30B01C01A9C
:100810005241C3088B4201D3CB00C01A5241830816
:100820008B4201D38B00C01A524143088B4201D343
:100830004B00C01A5241411A00D2014652411046A3
:100840007047FFE701B5002000F006F802BDC04682
:100850000029F7D076E770477047C04670B500268C
:100860000C4D0D4C641BA410A64209D1002600F0CB
:100870002BF80A4D0A4C641BA410A64205D170BD8A
:10088000B300EB5898470136EEE7B300EB589847B2
:100890000136F2E7D4080000D4080000D4080000B4
:1008A000D8080000F2010000EE010000EE01000097
:1008B000580200005802000008020000F801000081
:1008C0000E02000046020000F8B5C046F8BC08BCA5
:1008D0009E467047DD000000F8B5C046F8BC08BC75
:0808E0009E467047B5000000C0
:0408E800010000000B
:0400000300000631C2
:00000001FF
